:1000000002C1000030C100002EC100002CC1000060
:100010002AC1000028C1000026C1000024C1000040
:1000200022C1000020C100001EC100001CC1000050
:100030001AC1000018C1000016C1000014C1000060
:1000400012C1000010C100000EC100000CC1000070
:100050000AC1000008C1000006C100007FC4000002
:1000600002C10000EEC40000C3C40000FCC00000D8
:10007000FAC00000F8C00000F6C00000F4C00000A4
:10008000F2C00000F0C00000EEC00000ECC00000B4
:10009000EAC00000E8C00000E6C00000E4C00000C4
:1000A000E2C00000E0C00000DEC00000DCC00000D4
:1000B000DAC00000D8C00000D6C00000D4C00000E4
:1000C000D2C00000D0C00000CEC00000CCC00000F4
:1000D000CAC00000C8C00000C6C00000C4C0000004
:1000E000C2C0000000002100240027002A002D00CB
:1000F0003000330001010000040107010A01000083
:100100002200250028002B002E00310034000201BF
:100110000000050108010B0100002000230026005B
:1001200029002C002F00320000010000030106010D
:10013000090105050505070508080808020202026D
:100140000A0A080804040404010101010101010173
:100150000303030303030303040707070C0C0C0C3E
:100160000C0C0C0C02020202060606060606060627
:100170000B0B0B0B0B0B0B0B0102102020080810B4
:100180002040102040800201020108040201010207
:1001900004081020408080402010080402018004E0
:1001A000020180402010080402010804020101023B
:1001B0000408102040800102040810204080000044
:1001C0000A0B02090C0D0E080703040100000000D1
:1001D000000000000000000000000000000000001F
:1001E00000000000000000000000121110000000DC
:1001F00000000000000000000000000000000000FF
:10020000000000008B0A11241FBECFEFD1E2DEBF39
:10021000CDBF00E00CBF24E0ACE8B3E001C01D920C
:10022000A733B207E1F713E0A0E0B2E0EEEAF3E2B1
:1002300000E00BBF02C007900D92AC38B107D9F7B0
:1002400011E0C3E0D1E000E006C021970109802F52
:10025000FE010E94F40CC230D10780E00807A9F724
:1002600026D40C94D511CCCEFC01248135816217A3
:10027000730720F480819181009729F410928C03F8
:100280008CE893E00895860F971F0895AF92BF9270
:10029000CF92DF92EF92FF920F931F93CF93DF9352
:1002A0006C017B018B01040F151FEB015E01AE1881
:1002B000BF08C017D10759F06991D601ED91FC91A3
:1002C0000190F081E02DC6011995892B79F7C501C0
:1002D000DF91CF911F910F91FF90EF90DF90CF9022
:1002E000BF90AF900895FC01538D448D252F30E0D1
:1002F000842F90E0821B930B541710F0CF96089533
:1003000001970895FC01918D828D981761F0A28D5F
:10031000AE0FBF2FB11D5D968C91928D9F5F9F7325
:10032000928F90E008958FEF9FEF08952FB7F89484
:100330008091920390919303A0919403B0919503BF
:100340002FBF80939E0390939F03A093A003B0932D
:10035000A10386E993E0D6DF97FF26C02FB7F89474
:100360008091920390919303A0919403B09195038F
:100370002FBF40919E0350919F036091A003709105
:10038000A103841B950BA60BB70B40919A035091C8
:100390009B0360919C0370919D0384179507A607AA
:1003A000B707B8F28FEF9FEF0895FC01918D828D12
:1003B000981731F0828DE80FF11D858D90E008953A
:1003C0008FEF9FEF0895FC01918D228D892F90E092
:1003D000805C9F4F821B91098F739927089586E94E
:1003E00093E0F1DF21E0892B09F420E0822F0895CA
:1003F000FC01A48DA80FB92FB11DA35ABF4F2C919A
:10040000848D90E001968F739927848FA689B78990
:100410002C93A089B1898C91837080648C93938D87
:10042000848D981306C00288F389E02D80818F7D2A
:1004300080830895EF92FF920F931F93CF93DF93E2
:10044000EC0181E0888F9B8D8C8D98131AC0E88910
:10045000F989808185FF15C09FB7F894EE89FF89DF
:100460006083E889F98980818370806480839FBF7D
:1004700081E090E0DF91CF911F910F91FF90EF907D
:100480000895F62E0B8D10E00F5F1F4F0F7311278D
:10049000E02E8C8D8E110BC00FB607FCFACFE889C9
:1004A000F989808185FFF5CFCE01A2DFF2CFEB8DF8
:1004B000EC0FFD2FF11DE35AFF4FF0829FB7F89428
:1004C0000B8FEA89FB8980818062D0CFCF93DF9345
:1004D000EC01888D8823B1F0AA89BB89E889F98964
:1004E0008C9185FD03C0808186FD0CC00FB607FC92
:1004F000F7CF8C9185FFF2CF808185FFEDCFCE01C4
:1005000077DFEACFDF91CF91089580E090E0892BEB
:1005100021F065DF81110E94000080E090E0892BCE
:1005200049F080E090E0892B29F00E9400008111C1
:100530000E94000080E090E0892B49F080E090E08C
:10054000892B29F00E94000081110E94000080E0A8
:1005500090E0892B49F080E090E0892B29F00E94FF
:10056000000081110C94000008958150823108F040
:100570005AC0E82FF0E08827EF53FD4F8F4F0C94BF
:10058000F40CE102E502D302D902DD021303E80212
:10059000EE02F202F802FC02000306030A03130350
:1005A0000E0314031803809180008F7780938000DE
:1005B0000895809180008F7DF9CF80918000877FA2
:1005C000F5CF84B58F7784BD089584B58F7DFBCF3B
:1005D0008091B0008F778093B00008958091B00033
:1005E0008F7DF9CF809190008F7780939000089550
:1005F000809190008F7DF9CF80919000877FF5CF1B
:100600008091A0008F778093A00008958091A00032
:100610008F7DF9CF8091A000877FF5CF8091200159
:100620008F77809320010895809120018F7DF9CFED
:1006300080912001877FF5CFCF93DF93282F30E083
:10064000F901E254FE4F8491F901E858FE4FD4912C
:10065000F901EE5CFE4FC491CC2399F0811185DF46
:10066000EC2FF0E0EE0FFF1FE85EFE4FA591B49176
:10067000EC91ED2381E090E009F480E0DF91CF91EF
:10068000089580E090E0FACF1F93CF93DF93282F57
:1006900030E0F901E254FE4F8491F901E858FE4F31
:1006A000D491F901EE5CFE4FC491CC23A1F0162F3A
:1006B00081115BDFEC2FF0E0EE0FFF1FE250FF4FE8
:1006C000A591B4918FB7F894EC91111108C0D09511
:1006D000DE23DC938FBFDF91CF911F910895DE2B36
:1006E000F8CFCF93DF9390E0FC01E858FE4F2491C0
:1006F0008E5C9E4FFC0184918823D1F090E0880F9E
:10070000991FFC01EC51FF4FA591B491FC01E250FF
:10071000FF4FC591D49161110EC09FB7F8948C9191
:10072000E22FE0958E238C932881E223E8839FBFFC
:10073000DF91CF9108958FB7F894EC91E22BEC9371
:100740008FBFF6CF863308F0865320917B00982F19
:100750009870277F922B90937B00877080648093A2
:100760007C0080917A00806480937A0080917A0086
:1007700086FDFCCF80917800909179000895FC016E
:1007800001900020E9F73197AF01481B590BBC01DC
:1007900086E993E07BCD8F929F92AF92BF920F93A9
:1007A0001F93CF93DF93CDB7DEB7A1970FB6F89421
:1007B000DEBF0FBECDBF19A2423008F44AE08E0161
:1007C0000F5D1F4F842E912CB12CA12CA5019401FB
:1007D0000E94D20CE62FB901CA01EA30ECF4E05DC8
:1007E000D801EE938D01232B242B252B79F790E054
:1007F00080E0109711F0CD01C2DFA1960FB6F894FA
:10080000DEBF0FBECDBFDF91CF911F910F91BF9083
:10081000AF909F908F900895E95CE2CFCF93DF93E4
:10082000AEDFEC0188E192E0AADF8C0F9D1FDF9123
:10083000CF910895CF93DF93FC014481558160816E
:10084000718186E993E022DDEC0188E192E097DF97
:100850008C0F9D1FDF91CF91089591CFCF92DF92A2
:10086000EF92FF92CF93DF936C01990FEE08FF0890
:10087000F7FE1CC06DE286E993E0DCDDEC01662743
:100880007727CB016C197D098E099F094AE083DF28
:10089000C80FD91F88E192E072DF8C0F9D1FDF9196
:1008A000CF91FF90EF90DF90CF9008954AE0C7017D
:1008B000B60171DFEC01EECF0F931F93CF93DF935F
:1008C000EC0188819981009759F02A813B81261794
:1008D000370730F081E0DF91CF911F910F9108959C
:1008E0008B016F5F7F4F0E94210E009759F0998313
:1008F00088831B830A832C813D81232B59F7FC01BC
:100900001082E8CF80E0E7CFEF92FF920F931F9322
:10091000CF93DF93EC017B018A01BA01CDDF2881FF
:100920003981811114C02115310519F0C9010E94C6
:10093000980D198218821D821C821B821A82CE0198
:10094000DF91CF911F910F91FF90EF9008951D833C
:100950000C83B701C9010E94060FF1CF1F920F92BD
:100960000FB60F9211242F933F938F939F93AF93C2
:10097000BF938091920390919303A0919403B091BF
:1009800095033091910323E0230F2D3758F50196FD
:10099000A11DB11D20939103809392039093930323
:1009A000A0939403B093950380918D0390918E034F
:1009B000A0918F03B09190030196A11DB11D80936A
:1009C0008D0390938E03A0938F03B0939003BF91F8
:1009D000AF919F918F913F912F910F900FBE0F90EC
:1009E0001F90189526E8230F0296A11DB11DD2CFA6
:1009F0001F920F920FB60F9211240BB60F922F93E6
:100A00003F934F935F936F937F938F939F93AF9396
:100A1000BF93EF93FF9386E993E0EADCFF91EF91B8
:100A2000BF91AF919F918F917F916F915F914F9106
:100A30003F912F910F900BBE0F900FBE0F901F9004
:100A400018951F920F920FB60F9211240BB60F92AA
:100A50002F938F939F93EF93FF93E091A603F091D1
:100A6000A7038081E091AC03F091AD0382FD1DC02E
:100A700090818091AF038F5F8F732091B0038217B5
:100A800041F0E091AF03F0E0EA56FC4F958F809380
:100A9000AF03FF91EF919F918F912F910F900BBE1C
:100AA0000F900FBE0F901F9018958081F2CFCF93BB
:100AB000DF93CDB7DEB763970FB6F894DEBF0FBEF6
:100AC000CDBF789484B5826084BD84B5816084BDD7
:100AD00085B5826085BD85B5816085BD80916E00DC
:100AE000816080936E00109281008091810082600D
:100AF000809381008091810081608093810080914A
:100B000080008160809380008091B1008460809338
:100B1000B1008091B00081608093B000809191001D
:100B20008260809391008091910081608093910018
:100B3000809190008160809390008091A1008260FC
:100B40008093A1008091A10081608093A100809199
:100B5000A00081608093A000809121018260809339
:100B600021018091210181608093210180912001E8
:100B700081608093200180917A00846080937A0064
:100B800080917A00826080937A0080917A008160FF
:100B900080937A0080917A00806880937A00109226
:100BA000C100E091A603F091A70382E08083E09169
:100BB000A203F091A3031082E091A403F091A50396
:100BC0008FEC80831092AE03E091AA03F091AB0307
:100BD00086E08083E091A803F091A9038081806181
:100BE0008083E091A803F091A903808188608083CD
:100BF000E091A803F091A903808180688083E0914F
:100C0000A803F091A90380818F7D80838BE192E01E
:100C100005DE61E080E165DD61E081E162DD61E0EA
:100C200082E15FDD61E083E15CDD60E082E059DD6F
:100C300060E083E056DD60E084E053DD60E085E065
:100C400050DD61E080E120DD61E081E11DDD61E0FA
:100C500082E11ADD61E083E117DD61E089E041DDD9
:100C600061E08AE03EDD61E08BE03BDD61E08CE04D
:100C700038DD04E610E0C12CD12C760180E462DD81
:100C8000BC01990F880B990B79D420E030E040EA41
:100C900050E4D3D420E030EC4FE754E4E7D52AE029
:100CA00037ED43E25CE3E2D59B01AC01C701B6013D
:100CB00079D56B017C010150110901F720E030E08A
:100CC00048EC52E4D3D56B017C012B013C01AC0113
:100CD0009B0164D6882309F44EC08EE292E04FDD7A
:100CE00088E192E04CDD9AE0D92E1E012DE0220E23
:100CF000311C28EE422E23E0522E86E993E063DB7E
:100D0000181619060CF004C486E4C82E86E993E090
:100D10005ADB181619060CF0FBC318861F821A86B8
:100D200019861C861B8650E040E06AE172E0CE0125
:100D30000796EADDFBDA97FD9EC08A30910509F43B
:100D40009AC089831A820B851C850F5F1F4FB801DB
:100D5000CE010796B1DD882369F32F8138858B8515
:100D60009C85BE016F5F7F4F820F931F0E94060F0D
:100D70001C870B87DFCF46015701E894B7F82FEFA8
:100D80003FEF4FE75FE7C501B40108D681110CC002
:100D90002FEF3FEF4FE75FE7C501B401E9D3181626
:100DA0001CF482E392E09BCF2FEF3FEF4FE75FE42D
:100DB000C701B601EFD518161CF486E392E08FCF79
:100DC0002FEF3FEF4FE75FECC701B601D1D387FDAF
:100DD000F4CF20E030E0A901C701B601C9D387FFF5
:100DE0000AC06DE286E993E025DB2601370177FA38
:100DF000709477F870942AE037ED43EA5BE3C3011F
:100E0000B201D0D42B013C0199D56B017C01B4D344
:100E10009B01AC01C301B201C4D42B013C014AE0E7
:100E2000C701B601B8DC6EE286E993E003DB20E09F
:100E300030E040E251E4C301B201FFD32B013C0199
:100E40007DD56B01F12CE12C4AE0C701B601A3DC92
:100E5000C701B60191D39B01AC01C301B201A1D47A
:100E600020E030E040E251E4E8D368D590E080E053
:100E70004AE091DC35CF1A8219821C821B821E82C5
:100E80001D8250E040E06AE172E0CE0101963CDD57
:100E90006F81788561157105A1F04B855C85CE0168
:100EA000019632DD6A897B89CE010796DDD9FC0186
:100EB0008081882391F08A899B8901969B8B8A8BFC
:100EC000F1CF89819A81009709F032D61A8219826E
:100ED0001E821D821C821B82E5CF8A899B890D9709
:100EE000029720F4ECE0F0E0FB8BEA8B70E060E02E
:100EF000CE010796B9D9FC0180818A3309F005C378
:100F00008AE392E08BDC61E070E0CE010796ACD919
:100F1000FC011081103309F0CBC062E070E0CE011B
:100F20000796A2D9FC018081833309F0C1C08BE50B
:100F300092E074DC63E070E0CE01079695D9FC0185
:100F40008081082E000C990BC097D89E7001D99E05
:100F5000F00C112464E070E0CE01079685D9FC0105
:100F60008081082E000C990BC097E80EF91EF5E061
:100F7000EF16F10409F425C1B4F481E0E816F10498
:100F800009F49AC092E0E916F10409F4CEC089810F
:100F90009A81009709F0CCD58F819885009709F444
:100FA000B5CEC6D5B3CEE6E0EE16F10409F489C19C
:100FB000F7E0EF16F10459F765E070E0CE0107960F
:100FC00053D9FC018081082E000C990BC097D89E44
:100FD0008001D99E100D112466E070E0CE010796C5
:100FE00043D9FC01E0800E2C000CFF08F0E3EF1A5F
:100FF000F108E00EF11E570128E0A20EB11C67E0D7
:1010000070E0CE01079630D9FC018081082E000CDB
:10101000990BC097849D8001859D100D949D100DA6
:10102000112468E070E0CE0107961ED9FC01808192
:10103000082E000C990BC097F4E6F89F3001F99F39
:10104000700C1124060D171D69E070E0CE010796A3
:101050000BD9FC018081082E000C990BC097D89EFB
:101060003001D99E700C1124600E711E6AE070E090
:10107000CE010796F9D8FC010081002E000C110B5F
:1010800000531109060D171D83E493E0E6DBC70149
:10109000E5DB8FE593E0E1DBC801E0DB61E08A2D71
:1010A00020DB0115110509F06EC160E08A2D07C132
:1010B0008BE792E0B3DB6BCF65E070E0CE01079683
:1010C000D3D8FC018081082E000C990BC097D89EC4
:1010D0005001D99EB00C112466E070E0CE01079655
:1010E000C3D8FC01E0800E2C000CFF08F0E3EF1ADF
:1010F000F108EA0CFB1C86EA92E0AFDBC701AEDB2D
:101100008FE08E0D99DA67E070E0892B09F038C026
:10111000CE010796A9D8FC01C08268E070E0CE013C
:101120000796A2D8FC01C08237C065E070E0CE010E
:1011300007969AD8FC018081082E000C990BC09765
:10114000D89E5001D99EB00C112466E070E0CE010B
:1011500007968AD8FC01E0800E2C000CFF08F0E313
:10116000EF1AF108EA0CFB1C8EEC92E076DBC7016B
:1011700075DB81E08E0D60DA67E070E0892B41F667
:10118000CE01079671D8FC01108368E070E0CE01B3
:1011900007966AD8FC01108369E070E0CE010796DB
:1011A00063D8FC0110836AE070E0CE0107965CD83A
:1011B000FC01108388EB92E050DBCE0107963ADB0E
:1011C000E6CE65E070E0CE0107964ED8FC01808146
:1011D000082E000C990BC097D89E7001D99EF00C78
:1011E000112466E070E0CE0107963ED8FC01008134
:1011F000002E000C110B005311090E0D1F1D78015C
:10120000FFE0EF0EF11C82EE92E027DBC80126DB47
:1012100067E070E0CE01079627D8FC018081863414
:1012200049F167E070E0CE0107961ED8FC0180818D
:101230008033F1F468E070E0CE01079615D8FC0128
:1012400080818033A9F469E070E0CE0107960CD864
:10125000FC018081803361F46AE070E0CE01079682
:1012600003D8FC018081803319F48AE093E0D6DA58
:1012700061E024C068E070E0CE0107960E9434016E
:10128000FC018081863469F669E070E0CE01079642
:101290000E943401FC018081803309F0C2CF6AE0F2
:1012A00070E0CE0107960E943401FC0180818033FA
:1012B00009F0B7CF84EF92E0B1DA60E08E2DE4D987
:1012C00079CF65E070E0CE0107960E943401FC0101
:1012D0008081082E000C990BC097D89E7001D99E72
:1012E000F00C112466E070E0CE0107960E943401F4
:1012F000FC010081002E000C110B005311090E0D92
:101300001F1D80E293E0A9DAC801A8DA8FEF800FF1
:1013100019DA9F938F938EE393E09F938F933F927D
:101320002F927BD567E070E0CE0107960E943401D2
:101330002D85FC01208368E070E0CE0107960E94B5
:1013400034012E85FC01208369E070E0CE01079610
:101350000E9434012F85FC0120836AE070E0CE01F9
:1013600007960E9434012889FC01208388EB92E0D3
:1013700074DACE0107965EDA0F900F900F900F90FF
:101380000F900F9004CE0F3F110511F461E08ECE47
:10139000F501FF27E254FE4FE491E150E23108F0FD
:1013A000AFC0F0E08827E952F64F8F4F1DC3E9091F
:1013B000EE09F309FD09070A800A110A190A210A30
:1013C0002B0A350A3F0A4E0A580A800A620A6C0A3A
:1013D000760A84B5806884BD07BDECCE84B5806292
:1013E00084BD08BDE7CE8091800080688093800036
:1013F0001093890000938800DDCE80918000806288
:101400008093800010938B0000938A00D3CE80914C
:10141000800088608093800010938D0000938C0082
:10142000C9CE8091B00080688093B0000093B30073
:10143000C1CE8091B00080628093B0000093B40070
:10144000B9CE8091900080688093900010939900AD
:1014500000939800AFCE80919000806280939000BE
:1014600010939B0000939A00A5CE80919000886015
:101470008093900010939D0000939C009BCE8091E0
:10148000A00080688093A0008091A0008F7B809353
:10149000A0001093A9000093A8008CCE8091A0001A
:1014A00080628093A0001093AB000093AA0082CECC
:1014B0008091A00088608093A0001093AD000093FD
:1014C000AC0078CE80912001806880932001109339
:1014D0002901009328016ECE8091200180628093C3
:1014E000200110932B0100932A0164CE80912001EA
:1014F00088608093200110932D0100932C015ACE17
:10150000003811050CF042CFD0CD87E693E0D2CD64
:101510000E948502F2CBE6E9F3E01382128288EEA4
:1015200093E0A0E0B0E084839583A683B7838AE04C
:1015300092E09183808385EC90E09587848784ECAA
:1015400090E09787868780EC90E0918B808B81EC90
:1015500090E0938B828B82EC90E0958B848B86EC71
:1015600090E0978B868B118E128E138E148E0895B9
:1015700040D008F481E00895E89409C097FB3EF458
:1015800090958095709561957F4F8F4F9F4F9923D0
:10159000A9F0F92F96E9BB279395F695879577954E
:1015A0006795B795F111F8CFFAF4BB0F11F460FF0E
:1015B0001BC06F5F7F4F8F4F9F4F16C0882311F066
:1015C00096E911C0772321F09EE8872F762F05C07A
:1015D000662371F096E8862F70E060E02AF09A9515
:1015E000660F771F881FDAF7880F9695879597F90A
:1015F0000895990F0008550FAA0BE0E8FEEF1616A4
:101600001706E807F907C0F012161306E407F507F6
:1016100098F0621B730B840B950B39F40A2661F06A
:10162000232B242B252B21F408950A2609F4A1400D
:10163000A6958FEF811D811D08950BD078C069D0CC
:1016400028F06ED018F0952309F05AC05FC011241D
:10165000A2C07ED0A0F3959FD1F3950F50E0551F07
:10166000629FF001729FBB27F00DB11D639FAA27F7
:10167000F00DB11DAA1F649F6627B00DA11D661F46
:10168000829F2227B00DA11D621F739FB00DA11D67
:10169000621F839FA00D611D221F749F3327A00D21
:1016A000611D231F849F600D211D822F762F6A2FBD
:1016B00011249F5750408AF0E1F088234AF0EE0F42
:1016C000FF1FBB1F661F771F881F91505040A9F74F
:1016D0009E3F510570F014C05EC05F3FECF3983E32
:1016E000DCF3869577956795B795F795E7959F5FB6
:1016F000C1F7FE2B880F911D9695879597F9089550
:1017000097F99F6780E870E060E008959FEF80ECB4
:10171000089500240A941616170618060906089557
:1017200000240A9412161306140605060895092EBD
:101730000394000C11F4882352F0BB0F40F4BF2B2C
:1017400011F460FF04C06F5F7F4F8F4F9F4F08956C
:1017500057FD9058440F551F59F05F3F71F0479562
:10176000880F97FB991F61F09F3F79F08795089547
:10177000121613061406551FF2CF4695F1DF08C066
:10178000161617061806991FF1CF86957105610583
:1017900008940895E894BB2766277727CB0197F92B
:1017A00008955058BB27AA270ED0C1CFB2DF30F022
:1017B000B7DF20F031F49F3F11F41EF4A7CF0EF4F1
:1017C000E095E7FB9DCFE92FC3DF80F3BA176207EF
:1017D00073078407950718F071F49EF5DBCF0EF4BC
:1017E000E0950B2EBA2FA02D0B01B90190010C0131
:1017F000CA01A0011124FF27591B99F0593F50F449
:10180000503E68F11A16F040A22F232F342F4427A0
:10181000585FF3CF469537952795A795F040539598
:10182000C9F77EF41F16BA0B620B730B840BBAF068
:101830009150A1F0FF0FBB1F661F771F881FC2F7D3
:101840000EC0BA0F621F731F841F48F487957795E7
:101850006795B795F7959E3F08F0B3CF9395880F9E
:1018600008F09927EE0F9795879508950CD05FCFD4
:1018700057DF40F04EDF30F021F45F3F19F040CFEA
:10188000511189CF43CF64DF98F39923C9F35523CE
:10189000B1F3951B550BBB27AA2762177307840763
:1018A00038F09F5F5F4F220F331F441FAA1FA9F319
:1018B00033D00E2E3AF0E0E830D091505040E6950B
:1018C000001CCAF729D0FE2F27D0660F771F881F6C
:1018D000BB1F261737074807AB07B0E809F0BB0B5B
:1018E000802DBF01FF2793585F4F2AF09E3F51057F
:1018F00068F006CF50CF5F3FECF3983EDCF386955F
:1019000077956795B795F7959F5FC9F7880F911DF4
:101910009695879597F90895E1E0660F771F881FE0
:10192000BB1F621773078407BA0720F0621B730B93
:10193000840BBA0BEE1F88F7E095089511DF88F04D
:101940009F5790F0B92F9927B751A0F0D1F0660FAB
:10195000771F881F991F1AF0BA95C9F712C0B130C6
:1019600081F018DFB1E0089515CF672F782F882711
:10197000B85F39F0B93FCCF3869577956795B39505
:10198000D9F73EF490958095709561957F4F8F4F74
:101990009F4F08952EDE08F48FEF08952ADE880BFE
:1019A000990B0895A1E21A2EAA1BBB1BFD010DC0C5
:1019B000AA1FBB1FEE1FFF1FA217B307E407F507FF
:1019C00020F0A21BB30BE40BF50B661F771F881FDB
:1019D000991F1A9469F760957095809590959B0171
:1019E000AC01BD01CF010895EE0FFF1F881F8BBF13
:1019F0000790F691E02D19940F931F93CF93DF93E7
:101A00008230910510F482E090E0E0913504F0918D
:101A1000360430E020E0B0E0A0E0309799F42115E2
:101A2000310509F44AC0281B390B24303105D8F59B
:101A30008A819B816115710589F1FB019383828302
:101A4000FE0111C04081518102811381481759075D
:101A5000E0F04817590799F4109761F012960C932B
:101A6000129713961C933296CF01DF91CF911F915D
:101A70000F9108950093350410933604F4CF211587
:101A8000310551F04217530738F0A901DB019A01E3
:101A9000BD01DF01F801C1CFEF01F9CF909336040A
:101AA00080933504CDCFFE01E20FF31F8193919314
:101AB0002250310939832883D7CF209133043091C4
:101AC0003404232B41F4209102023091030230931D
:101AD0003404209333042091000230910102211537
:101AE000310541F42DB73EB74091040250910502F3
:101AF000241B350BE0913304F0913404E217F30713
:101B0000A0F42E1B3F0B2817390778F0AC014E5F6D
:101B10005F4F2417350748F04E0F5F1F5093340472
:101B200040933304819391939FCFF0E0E0E09CCF0A
:101B3000CF93DF930097E9F0FC0132971382128272
:101B4000A0913504B0913604ED0130E020E010970B
:101B5000A1F420813181820F931F209133043091B1
:101B600034042817390709F061C0F0933404E09376
:101B70003304DF91CF910895EA01CE17DF07E8F52E
:101B80004A815B819E0141155105B1F7E901FB8353
:101B9000EA8349915991C40FD51FEC17FD0761F4F1
:101BA000808191810296840F951FE9019983888332
:101BB000828193819B838A83F0E0E0E012968D918D
:101BC0009C9113970097B9F52D913C911197CD01F8
:101BD0000296820F931F209133043091340428170A
:101BE000390739F6309751F51092360410923504C2
:101BF000B0933404A0933304BCCFD383C283408119
:101C00005181840F951FC817D90761F44E5F5F4F4C
:101C100088819981480F591F518340838A819B8114
:101C2000938382832115310509F0B0CFF0933604F8
:101C3000E09335049ECFFD01DC01C0CF13821282F8
:101C4000D7CF4F925F926F927F928F929F92AF9277
:101C5000BF92CF92DF92EF92FF920F931F93CF9399
:101C6000DF938C01009791F4CB01DF91CF911F910D
:101C70000F91FF90EF90DF90CF90BF90AF909F902B
:101C80008F907F906F905F904F90B6CEFC01E60FE3
:101C9000F71F9C0122503109E217F30708F4AAC08C
:101CA000D901CD91DC911197C617D70718F1C5302E
:101CB000D10570F0CE0104978617970748F0C61B30
:101CC000D70B2297C193D1936D937C93CF0130DFD3
:101CD000C801DF91CF911F910F91FF90EF90DF909E
:101CE000CF90BF90AF909F908F907F906F905F90BC
:101CF0004F9008955B01AC1ABD0A4C018C0E9D1EDD
:101D0000A0913504B0913604512C412CF12CE12CDA
:101D1000109731F58091330490913404881599051A
:101D200009F05CC04616570608F058C080910002C2
:101D300090910102009741F48DB79EB74091040243
:101D400050910502841B950BE817F90708F052C063
:101D5000F0933404E0933304F90171836083B8CFC6
:101D60008D919C91119712966C90129713967C907E
:101D70001397A815B90559F56C0142E0C40ED11CA2
:101D8000CA14DB0420F1AC014A195B09DA0112968E
:101D9000159780F06282738251834083D9016D93DD
:101DA0007C93E114F10471F0D7011396FC93EE9348
:101DB00012978ECF22968C0F9D1FF90191838083FD
:101DC000F301EFCFF0933604E093350481CF48164A
:101DD000590608F42C017D01D3019ACFCB010CDE0A
:101DE0007C01009739F0AE01B80107D0C801A0DE30
:101DF00087016ECF10E000E06BCFFB01DC0102C079
:101E000001900D9241505040D8F70895FB01DC013C
:101E100001900D920020E1F708950F931F93CF9347
:101E2000DF93CDB7DEB72E970FB6F894DEBF0FBEA7
:101E3000CDBF0E891F8986E08C831A8309838FEFBB
:101E40009FE79E838D83AE01465E5F4F688D798DDF
:101E5000CE01019611D02F813885020F131FF80192
:101E600010822E960FB6F894DEBF0FBECDBFDF9165
:101E7000CF911F910F9108952F923F924F925F92B1
:101E80006F927F928F929F92AF92BF92CF92DF928A
:101E9000EF92FF920F931F93CF93DF9300D000D068
:101EA00000D01F921F92CDB7DEB77C013B018A01A3
:101EB000FC0117821682838181FFD0C1CE01019679
:101EC0005C01F7019381F30193FD859193FF81916B
:101ED0003F01882309F449C1853239F493FD859186
:101EE00093FF81913F01853221F4B70190E0CFD17A
:101EF000E8CF912C212C312CFFE1F31538F08B32F7
:101F000011F190F4803209F1833229F137FC3CC0A1
:101F100020ED280F2A3050F536FE20C08AE0989E2A
:101F2000200D1124922E06C08D3291F0803371F76E
:101F3000689430F8F30193FD859193FF81913F01FF
:101F40008111DACF21C0689431F8689432F8F2CF69
:101F5000689433F8EFCF689434F8ECCFEAE02E9E23
:101F6000200D1124222E689435F8E4CF8E3229F406
:101F700036FCFBC0689436F8DDCF8C3619F46894D3
:101F800037F8D8CF8836B1F2982F9F7D955493308B
:101F9000D8F0833691F18337B1F1833509F05EC013
:101FA0002801F2E04F0E511CF801C080D180692D4C
:101FB00070E036FC02C06FEF7FEFC60152D14C01DA
:101FC000689437F882010AC00C5F1F4FFFE3F98362
:101FD00088248394912C6501E89437F833FE2AC055
:101FE000522C8114910459F5552009F46ACFB70198
:101FF00080E290E04CD15A94F7CFF8018081898338
:102000000E5F1F4FE5CF2801F2E04F0E511CF80183
:10201000C080D180692D70E036FC02C06FEF7FEF89
:10202000C6012AD14C018201D7CFB70180E290E0EE
:102030002ED12A942814190409F0B8F7D1CFF6014B
:1020400037FC859137FE81916F01B70190E01FD178
:1020500051105A94F1E08F1A9108C3CF843619F0C9
:10206000893609F073C0F80137FE67C0608171815D
:10207000828193810C5F1F4FF32DFF763F2E97FFD8
:1020800009C090958095709561957F4F8F4F9F4FB8
:10209000689437F82AE030E0A50129D1C82ECA1883
:1020A0008C2C432C36FE0CC0E89440F8C91440F444
:1020B00034FE05C032FC03C0F32DFE7E4F2E892C6A
:1020C00044FEA6C0FE01EC0DF11D8081803309F0B5
:1020D00098C0242D297E422E842D8870582E43FCD2
:1020E000A5C040FE9FC09C2C821418F42C0C922C8E
:1020F000981844FEA1C0B70180E390E0C8D042FE2A
:1021000008C088E790E041FE02C088E590E0B70192
:10211000BED0C91408F49CC0CA94D12C9FEFC91A30
:10212000D90ACA0CDB1CF60182916F01B70190E05D
:10213000AED0AC14BD04B9F757CF60817181072EC2
:10214000000C880B990B0E5F1F4F96CFD32CE89491
:10215000D4F82AE030E08537E1F1232D297FD22E13
:102160008F36A9F1F0F4883551F1F7018681978116
:102170002B960FB6F894DEBF0FBECDBFDF91CF9187
:102180001F910F91FF90EF90DF90CF90BF90AF9095
:102190009F908F907F906F905F904F903F902F9087
:1021A0000895803749F0883701F7D4FE02C068945B
:1021B000D2F820E130E00DC06894D4F8F6CF34FEB8
:1021C00003C0822F8660D82E20E132E002C028E0D2
:1021D00030E0F801D7FE0EC0608171818281938169
:1021E0000C5F1F4FA50183D0C82ECA183D2CE89460
:1021F00037F856CF6081718190E080E00E5F1F4F0D
:10220000F1CF42FC02C0839467CF8394839464CF60
:10221000842D867809F460CFF6CFB70180E290E094
:1022200036D083948214C8F3512C63CF522C5818A3
:10223000821408F45ECFF8CF842D867809F469CF34
:102240008BE241FE80E247FC8DE2B70190E060CF77
:10225000B70180E390E01BD09A945BCF8FEF9FEFA4
:1022600087CFFC010590615070400110D8F7809530
:1022700090958E0F9F1F0895FC0161507040019052
:102280000110D8F7809590958E0F9F1F08950F939A
:102290001F93CF93DF93182F092FEB018B8181FDC3
:1022A00009C01FEF0FEF812F902FDF91CF911F916A
:1022B0000F91089582FF14C02E813F818C819D81F2
:1022C000281739073CF4E881F981CF0101969983F9
:1022D000888310838E819F8101969F838E83E3CFB5
:1022E000E885F985812F1995892BA1F3DACFFA01B9
:1022F000AA27283051F1203181F1E8946F936E7F45
:102300006E5F7F4F8F4F9F4FAF4FB1E03ED0B4E035
:102310003CD0670F781F891F9A1FA11D680F791F76
:102320008A1F911DA11D6A0F711D811D911DA11D87
:1023300020D009F468943F912AE0269F1124301997
:10234000305D3193DEF6CF010895462F4770405D32
:102350004193B3E00FD0C9F7F6CF462F4F70405DE1
:102360004A3318F0495D31FD4052419302D0A9F73C
:10237000EACFB4E0A6959795879577956795BA9536
:10238000C9F700976105710508959B01AC010A2EFC
:1023900006945795479537952795BA95C9F7620FD3
:0E23A000731F841F951FA01D0895F894FFCF92
:1023AE00000037048000000000001A02460173018D
:1023BE006602E3018201D5010D0A0053697374654B
:1023CE006D6120496E636961646F2E2E2E006E6101
:1023DE006E00696E66006F766600436172616374AB
:1023EE00657220646520696E6963696F20656E632E
:1023FE006F6E747261646F2E2E2E00456E64657260
:10240E0065C3A76F206465206573637261766F2064
:10241E00636F727265746F2E2E2E004D656E736132
:10242E0067656D2070617261206F7574726F2065C3
:10243E0073637261766F2C20416C656C75696121D6
:10244E0021212E2E2E004C656974757261206E61ED
:10245E002053616964612000526573706F737461FB
:10246E0020646F204573637261766F3A20004C656D
:10247E006974757261206E6120456E74726164615B
:10248E00200045736372697461206E612053616927
:10249E0064612000202D3E204D75646172207061B4
:1024AE007261204C696761646F00204D75646172C2
:1024BE002070617261204465736C696761646F009E
:1024CE004C656974757261206E6120456E7472611F
:1024DE00646120416E616C6F676963612000253015
:1024EE0034640045736372697461206E61205361B8
:1024FE0069646120416E616C6F676963612000568B
:10250E00616C6F723A2000466F726D61746F206459
:10251E0065206D656E736167656D20646573636FAD
:0C252E006E68656369646F2E2E2E00003D
:00000001FF
