:1000000002C1000030C100002EC100002CC1000060
:100010002AC1000028C1000026C1000024C1000040
:1000200022C1000020C100001EC100001CC1000050
:100030001AC1000018C1000016C1000014C1000060
:1000400012C1000010C100000EC100000CC1000070
:100050000AC1000008C1000006C1000088C50000F8
:1000600002C10000F7C50000CCC50000FCC00000C4
:10007000FAC00000F8C00000F6C00000F4C00000A4
:10008000F2C00000F0C00000EEC00000ECC00000B4
:10009000EAC00000E8C00000E6C00000E4C00000C4
:1000A000E2C00000E0C00000DEC00000DCC00000D4
:1000B000DAC00000D8C00000D6C00000D4C00000E4
:1000C000D2C00000D0C00000CEC00000CCC00000F4
:1000D000CAC00000C8C00000C6C00000C4C0000004
:1000E000C2C0000000002100240027002A002D00CB
:1000F0003000330001010000040107010A01000083
:100100002200250028002B002E00310034000201BF
:100110000000050108010B0100002000230026005B
:1001200029002C002F00320000010000030106010D
:10013000090105050505070508080808020202026D
:100140000A0A080804040404010101010101010173
:100150000303030303030303040707070C0C0C0C3E
:100160000C0C0C0C02020202060606060606060627
:100170000B0B0B0B0B0B0B0B0102102020080810B4
:100180002040102040800201020108040201010207
:1001900004081020408080402010080402018004E0
:1001A000020180402010080402010804020101023B
:1001B0000408102040800102040810204080000044
:1001C0000A0B02090C0D0E080703040100000000D1
:1001D000000000000000000000000000000000001F
:1001E00000000000000000000000121110000000DC
:1001F00000000000000000000000000000000000FF
:1002000000000000E60C11241FBECFEFD1E2DEBFDC
:10021000CDBF00E00CBF13E0A0E0B2E0E0E2F9E205
:1002200000E00BBF02C007900D92AE3AB107D9F7BC
:1002300024E0AEEAB3E001C01D92AD36B207E1F7AB
:1002400011E0C3E0D1E000E006C021970109802F52
:10025000FE010E94930FC230D10780E00807A9F782
:100260002FD50C948E14CCCEFC01248135816217DD
:10027000730720F480819181009729F41092AE03D6
:100280008EEA93E00895860F971F0895AF92BF926C
:10029000CF92DF92EF92FF920F931F93CF93DF9352
:1002A0006C017B018B01040F151FEB015E01AE1881
:1002B000BF08C017D10759F06991D601ED91FC91A3
:1002C0000190F081E02DC6011995892B79F7C501C0
:1002D000DF91CF911F910F91FF90EF90DF90CF9022
:1002E000BF90AF900895FC01538D448D252F30E0D1
:1002F000842F90E0821B930B541710F0CF96089533
:1003000001970895FC01918D828D981761F0A28D5F
:10031000AE0FBF2FB11D5D968C91928D9F5F9F7325
:10032000928F90E008958FEF9FEF08952FB7F89484
:100330008091C8039091C903A091CA03B091CB03E7
:100340002FBF8093D4039093D503A093D603B0938B
:10035000D7038CEC93E0D6DF97FF26C02FB7F89435
:100360008091C8039091C903A091CA03B091CB03B7
:100370002FBF4091D4035091D5036091D603709163
:10038000D703841B950BA60BB70B4091D00350915C
:10039000D1036091D2037091D30384179507A60708
:1003A000B707B8F28FEF9FEF0895FC01918D828D12
:1003B000981731F0828DE80FF11D858D90E008953A
:1003C0008FEF9FEF0895FC01918D228D892F90E092
:1003D000805C9F4F821B91098F73992708958CEC45
:1003E00093E0F1DF21E0892B09F420E0822F0895CA
:1003F000FC01A48DA80FB92FB11DA35ABF4F2C919A
:10040000848D90E001968F739927848FA689B78990
:100410002C93A089B1898C91837080648C93938D87
:10042000848D981306C00288F389E02D80818F7D2A
:1004300080830895EF92FF920F931F93CF93DF93E2
:10044000EC0181E0888F9B8D8C8D98131AC0E88910
:10045000F989808185FF15C09FB7F894EE89FF89DF
:100460006083E889F98980818370806480839FBF7D
:1004700081E090E0DF91CF911F910F91FF90EF907D
:100480000895F62E0B8D10E00F5F1F4F0F7311278D
:10049000E02E8C8D8E110BC00FB607FCFACFE889C9
:1004A000F989808185FFF5CFCE01A2DFF2CFEB8DF8
:1004B000EC0FFD2FF11DE35AFF4FF0829FB7F89428
:1004C0000B8FEA89FB8980818062D0CFCF93DF9345
:1004D000EC01888D8823B1F0AA89BB89E889F98964
:1004E0008C9185FD03C0808186FD0CC00FB607FC92
:1004F000F7CF8C9185FFF2CF808185FFEDCFCE01C4
:1005000077DFEACFDF91CF91089580E090E0892BEB
:1005100021F065DF81110E94000080E090E0892BCE
:1005200049F080E090E0892B29F00E9400008111C1
:100530000E94000080E090E0892B49F080E090E08C
:10054000892B29F00E94000081110E94000080E0A8
:1005500090E0892B49F080E090E0892B29F00E94FF
:10056000000081110C94000008958150823108F040
:100570005AC0E82FF0E08827EF53FD4F8F4F0C94BF
:10058000930FE102E502D302D902DD021303E80270
:10059000EE02F202F802FC02000306030A03130350
:1005A0000E0314031803809180008F7780938000DE
:1005B0000895809180008F7DF9CF80918000877FA2
:1005C000F5CF84B58F7784BD089584B58F7DFBCF3B
:1005D0008091B0008F778093B00008958091B00033
:1005E0008F7DF9CF809190008F7780939000089550
:1005F000809190008F7DF9CF80919000877FF5CF1B
:100600008091A0008F778093A00008958091A00032
:100610008F7DF9CF8091A000877FF5CF8091200159
:100620008F77809320010895809120018F7DF9CFED
:1006300080912001877FF5CFCF93DF93282F30E083
:10064000F901E254FE4F8491F901E858FE4FD4912C
:10065000F901EE5CFE4FC491CC2399F0811185DF46
:10066000EC2FF0E0EE0FFF1FE85EFE4FA591B49176
:10067000EC91ED2381E090E009F480E0DF91CF91EF
:10068000089580E090E0FACF1F93CF93DF93282F57
:1006900030E0F901E254FE4F8491F901E858FE4F31
:1006A000D491F901EE5CFE4FC491CC23A1F0162F3A
:1006B00081115BDFEC2FF0E0EE0FFF1FE250FF4FE8
:1006C000A591B4918FB7F894EC91111108C0D09511
:1006D000DE23DC938FBFDF91CF911F910895DE2B36
:1006E000F8CFCF93DF9390E0FC01E858FE4F2491C0
:1006F0008E5C9E4FFC0184918823D1F090E0880F9E
:10070000991FFC01EC51FF4FA591B491FC01E250FF
:10071000FF4FC591D49161110EC09FB7F8948C9191
:10072000E22FE0958E238C932881E223E8839FBFFC
:10073000DF91CF9108958FB7F894EC91E22BEC9371
:100740008FBFF6CF863308F0865320917B00982F19
:100750009870277F922B90937B00877080648093A2
:100760007C0080917A00806480937A0080917A0086
:1007700086FDFCCF809178009091790008958F924A
:100780009F92AF92BF92CF92DF92EF92FF92CF9360
:10079000DF93C5E0D0E0812C912C540189E3D2DFB6
:1007A000BC01990F880B990B0E94190D20E030E0D5
:1007B00040EA50E40E94780D20E030EC4FE754E42A
:1007C0000E94E80E2AE037ED43E25CE30E94E80E67
:1007D0009B01AC01C501B4010E94840E4B015C0178
:1007E0002197E1F6C5E0D0E0C12CD12C760188E359
:1007F000A9DFBC01990F880B990B0E94190D20E00D
:1008000030E040EA50E40E94780D20E030EC4FE701
:1008100054E40E94E80E2AE037ED43E25CE30E94D4
:10082000E80E9B01AC01C701B6010E94840E6B016A
:100830007C012197E1F620E030E040EA50E4C50178
:10084000B4010E94E80E6093BD037093BE038093D1
:10085000BF039093C00320E030E040EA50E4C701BA
:10086000B6010E94E80E6093B1037093B2038093C7
:10087000B3039093B403DF91CF91FF90EF90DF909B
:10088000CF90BF90AF909F908F900895CF92DF92BE
:10089000EF92FF920F931F93CF93DF9300D000D07E
:1008A0001F921F92CDB7DEB76C01862F0091060212
:1008B00010910702209108023091090209831A83DE
:1008C0002B833C8300910A0210910B0220910C02B1
:1008D00030910D020D831E832F833887EE24E3941D
:1008E000F12C4130510511F4F12CE12C2BDF8D3C22
:1008F000910514F48DEC90E08C01043383E018072B
:1009000014F003E313E026E632E0D6010E949B0FC9
:100910002FEF33E040E050E00E942C0E23533F4F76
:100920004F4F5F4FEE0CFF1CE1E0F0E0EC0FFD1FBE
:1009300002171307D4F4EE0EFF1E60E0F70180816A
:10094000A3DE61E0F70184819FDEC80128960FB61F
:10095000F894DEBF0FBECDBFDF91CF911F910F91F5
:10096000FF90EF90DF90CF900895EE0DFF1DD080A7
:10097000F4802017310734F460E08F2D85DE61E0CC
:100980008D2DE2CF61E08D2D7FDE61E08F2DDCCFFC
:10099000FC0101900020E9F73197AF01481B590B8A
:1009A000BC018CEC93E072CC8F929F92AF92BF927D
:1009B0000F931F93CF93DF93CDB7DEB7A1970FB6F9
:1009C000F894DEBF0FBECDBF19A2423008F44AE052
:1009D0008E010F5D1F4F842E912CB12CA12CA501EF
:1009E00094010E94520EE62FB901CA01EA30ECF4DC
:1009F000E05DD801EE938D01232B242B252B79F775
:100A000090E080E0109711F0CD01C2DFA1960FB603
:100A1000F894DEBF0FBECDBFDF91CF911F910F9134
:100A2000BF90AF909F908F900895E95CE2CFCF93F5
:100A3000DF93AEDFEC0180E292E0AADF8C0F9D1F16
:100A4000DF91CF910895CF93DF93FC0144815581CD
:100A5000608171818CEC93E019DCEC0180E292E022
:100A600097DF8C0F9D1FDF91CF91089591CFCF928B
:100A7000DF92EF92FF92CF93DF936C01990FEE0814
:100A8000FF08F7FE1CC06DE28CEC93E0D3DCEC01B8
:100A900066277727CB016C197D098E099F094AE0EB
:100AA00083DFC80FD91F80E292E072DF8C0F9D1F99
:100AB000DF91CF91FF90EF90DF90CF9008954AE0C3
:100AC000C701B60171DFEC01EECF0F931F93CF93F7
:100AD000DF93EC0188819981009759F02A813B814D
:100AE0002617370730F081E0DF91CF911F910F91EA
:100AF00008958B016F5F7F4F0E94DA10009759F0C5
:100B0000998388831B830A832C813D81232B59F78A
:100B1000FC011082E8CF80E0E7CFEF92FF920F93C5
:100B20001F93CF93DF93EC017B018A01BA01CDDFE4
:100B300028813981811114C02115310519F0C901AD
:100B40000E945110198218821D821C821B821A82F7
:100B5000CE01DF91CF911F910F91FF90EF900895FB
:100B60001D830C83B701C9010E94BF11F1CF1F92F1
:100B70000F920FB60F9211242F933F938F939F9351
:100B8000AF93BF938091C8039091C903A091CA030A
:100B9000B091CB033091C70323E0230F2D3758F5D5
:100BA0000196A11DB11D2093C7038093C8039093A4
:100BB000C903A093CA03B093CB038091C303909160
:100BC000C403A091C503B091C6030196A11DB11D38
:100BD0008093C3039093C403A093C503B093C6034B
:100BE000BF91AF919F918F913F912F910F900FBE29
:100BF0000F901F90189526E8230F0296A11DB11D96
:100C0000D2CF1F920F920FB60F9211240BB60F92F4
:100C10002F933F934F935F936F937F938F939F9304
:100C2000AF93BF93EF93FF938CEC93E0E1DBFF91E5
:100C3000EF91BF91AF919F918F917F916F915F9154
:100C40004F913F912F910F900BBE0F900FBE0F90C1
:100C50001F9018951F920F920FB60F9211240BB68A
:100C60000F922F938F939F93EF93FF93E091DC0369
:100C7000F091DD038081E091E203F091E30382FDD6
:100C80001DC090818091E5038F5F8F732091E603F3
:100C9000821741F0E091E503F0E0E453FC4F958FBB
:100CA0008093E503FF91EF919F918F912F910F908A
:100CB0000BBE0F900FBE0F901F9018958081F2CF42
:100CC000CF93DF93CDB7DEB765970FB6F894DEBF4D
:100CD0000FBECDBF789484B5826084BD84B5816039
:100CE00084BD85B5826085BD85B5816085BD8091F7
:100CF0006E00816080936E0010928100809181006F
:100D00008260809381008091810081608093810066
:100D1000809180008160809380008091B100846028
:100D20008093B1008091B00081608093B000809189
:100D30009100826080939100809191008160809306
:100D40009100809190008160809390008091A1003B
:100D500082608093A1008091A10081608093A100B6
:100D60008091A00081608093A00080912101826029
:100D700080932101809121018160809321018091E4
:100D8000200181608093200180917A0084608093AB
:100D90007A0080917A00826080937A0080917A0054
:100DA000816080937A0080917A00806880937A00D5
:100DB0001092C100E091DC03F091DD0382E08083BA
:100DC000E091D803F091D9031082E091DA03F09119
:100DD000DB038FEC80831092E403E091E003F09159
:100DE000E10386E08083E091DE03F091DF03808100
:100DF00080618083E091DE03F091DF038081886071
:100E00008083E091DE03F091DF038081806880833E
:100E1000E091DE03F091DF0380818F7D808383E2A8
:100E200092E005DE61E088E05CDC61E080E159DCB5
:100E300061E081E156DC61E082E153DC61E083E165
:100E400050DC61E084E14DDC61E085E14ADC61E099
:100E500086E147DC61E087E144DC60E082E041DC80
:100E600060E083E03EDC60E084E03BDC60E085E065
:100E700038DC61E080E108DC61E081E105DC61E013
:100E800082E102DC61E083E1FFDB61E084E1FCDB25
:100E900061E085E1F9DB61E086E1F6DB61E087E1B5
:100EA000F3DB61E089E01DDC61E08AE01ADC61E0EF
:100EB0008BE017DC61E08CE014DC61E08DE011DC9C
:100EC00061E08EE00EDC61E08FE00BDC60E086E349
:100ED00008DC60E087E305DC60E088E302DC60E0DA
:100EE00089E3FFDB60E08AE3FCDB60E08BE3F9DBB6
:100EF00060E08CE3F6DB60E08EE3F3DB40DC2AE3CA
:100F0000222E23E0322E9E01235F3F4F3B8B2A8B04
:100F10008CEC93E058DA181619060CF054C58AE0E8
:100F2000E82E90E3F92E8CEC93E04DDA18161906B2
:100F30000CF049C518861F821A8619861C861B86E6
:100F400050E040E062E272E0CE010796E6DDEED9C5
:100F500097FD1DC08A309105D1F089831A820B85D7
:100F60001C850F5F1F4FB801CE010796AEDD8823A9
:100F700071F32F8138858B859C85BE016F5F7F4F14
:100F8000820F931F0E94BF111C870B87E0CF1A822C
:100F900019821C821B821E821D8250E040E062E2A8
:100FA00072E0CE010196B9DD6F817885611571051A
:100FB000A9F04B855C85CE010196AFDD6C897D89FA
:100FC000CE01079651D9FC0180818823A1F02C899C
:100FD0003D892F5F3F4F3D8B2C8BF0CF89819A81CC
:100FE000009711F00E9451101A8219821E821D82F0
:100FF0001C821B82E3CF8C899D890D97029720F478
:101000008CE090E09D8B8C8B70E060E0CE010796C9
:101010002BD9FC0180818A3309F0D2C486E392E0A7
:1010200006DD61E070E0CE0107961ED9FC018081EB
:10103000803309F0B1C062E070E0CE01079614D9A8
:10104000FC018081833309F0A7C087E592E0EFDCE3
:1010500063E070E0CE01079607D9FC018081082E7D
:10106000000C990BC097E89E6001E99ED00C1124FA
:1010700064E070E0CE010796F7D8FC010081002EF5
:10108000000C110B005311090C0D1D1D78DBC090D5
:10109000C103D090C2038090BD039090BE03A09086
:1010A000BF03B090C003B6016F5E7F4F072E000CE8
:1010B000880B990BBED4A5019401B5D487FF03C05A
:1010C00061E083E1E1DA61E170E06C197D09072EEE
:1010D000000C880B990BADD49B01AC01C501B40188
:1010E000A2D487FF03C060E083E1CEDA8091BB0326
:1010F0009091BC03019791F441E050E06CE370E003
:101100008091B9039091BA03C1DB42E050E06EE3F5
:1011100070E08091B7039091B803B8DB6091B5039C
:101120007091B603072E000C880B990B82D44B01EB
:101130005C014090B1035090B2036090B303709093
:10114000B403A30192016FD487FF03C061E080E183
:101150009BDAA3019201C501B401CED618161CF486
:1011600060E080E191DA0530110509F443C1C4F46F
:101170000130110509F4D2C00230110509F40CC187
:1011800089819A81009709F08CD78F819885009783
:1011900009F4C9CE86D7C7CE87E792E048DCF0CF06
:1011A0000630110509F4ADC10730110549F765E0B6
:1011B00070E0CE01079658D8FC018081082E000C03
:1011C000990BC097E89E8001E99E100D112466E0FE
:1011D00070E0CE01079648D8FC01A0800A2C000CD4
:1011E000BB08F0E3AF1AB108A00EB11E650128E0FC
:1011F000C20ED11C67E070E0CE01079635D8FC0125
:101200008081082E000C990BC09728EE33E0829F56
:101210008001839F100D929F100D112468E070E0F3
:10122000CE01079621D8FC018081082E000C990B75
:10123000C097F4E6F89F3001F99F700C1124060D59
:10124000171D69E070E0CE0107960ED8FC01808181
:10125000082E000C990BC097E89E3001E99E700C97
:101260001124600E711E6AE070E0CE0107960E94A4
:101270003401FC010081002E000C110B00531109F8
:10128000060D171D8FE393E0F1DBC501F0DB8BE565
:1012900093E0ECDBFBE0CF16D10409F05FC26FDA1C
:1012A0001093B6030093B503B801012E000C880B10
:1012B000990BBFD34B015C012091B1033091B20374
:1012C0004091B3035091B403AED387FF06C083E6C9
:1012D00093E0ADDB61E080E1D7D92091B10330919B
:1012E000B2034091B3035091B403C501B40104D6D5
:1012F000181634F486E793E09ADB60E080E1C4D905
:1013000023E3209FC001219F900D11246AE070E02B
:10131000F7D55B01C801ABDB850157C265E070E022
:10132000CE0107960E943401FC018081082E000C3A
:10133000990BC097E89E6001E99ED00C112466E0ED
:1013400070E0CE0107960E943401FC010081002E5E
:10135000000C110B005311090C0D1D1D82EA92E0C7
:1013600085DBC80184DB8FE0800F66D967E070E021
:10137000892B09F0CEC1CE0107960E94340126E4E4
:10138000FC01208368E070E0CE0107960E943401E2
:1013900026E4FC012083CBC165E070E0CE01079616
:1013A0000E943401FC018081082E000C990BC0972B
:1013B000E89E6001E99ED00C112466E070E0CE0149
:1013C00007960E943401FC010081002E000C110BD5
:1013D000005311090C0D1D1D8AEC92E047DBC8017A
:1013E00046DB81E0800F28D9892B09F490C167E0A2
:1013F00070E0C1CF65E070E0CE0107960E94340135
:10140000FC018081082E000C990BC097E89E6001BA
:10141000E99ED00C112466E070E0CE0107960E9490
:101420003401FC010081002E000C110B0053110946
:101430000C0D1D1D6801FFE0CF0ED11C8EED92E05A
:1014400015DBC80114DB67E070E0CE0107960E944F
:101450003401FC018081863469F167E070E0CE01DF
:1014600007960E943401FC018081803309F568E011
:1014700070E0CE0107960E943401FC018081803328
:10148000B9F469E070E0CE0107960E943401FC01D6
:101490008081803369F46AE070E0CE0107960E9493
:1014A0003401FC018081803319F486E093E0BFDAD7
:1014B00061E024C068E070E0CE0107960E9434012C
:1014C000FC018081863449F669E070E0CE01079620
:1014D0000E943401FC018081803309F0BECF6AE0B4
:1014E00070E0CE0107960E943401FC0180818033B8
:1014F00009F0B3CF80EF92E09ADA60E08C2DC4D887
:1015000026C165E070E0CE0107960E943401FC011F
:101510008081082E000C990BC097E89E6001E99E1F
:10152000D00C112466E070E0CE0107960E943401D1
:10153000FC010081002E000C110B005311090C0D51
:101540001D1D6801F1E0CF1AD1088CE193E08EDA1D
:10155000C8018DDA22E0C216D10409F04EC00FD9BD
:101560006091B1037091B2038091B3039091B40381
:1015700097D47F936F933F922F923B893F938A89B1
:101580008F9304D767E070E0CE0107960E94340184
:101590002D85FC01208368E070E0CE0107960E9453
:1015A00034012E85FC01208369E070E0CE010796AE
:1015B0000E9434012F85FC0120836AE070E0CE0197
:1015C00007960E9434012889FC01208384EB92E075
:1015D0004DDACE01079637DA0F900F900F900F90EB
:1015E0000F900F908C2DAED89F938F933F922F9298
:1015F000FB89FF932A892F9317C0F3E0CF16D104FC
:1016000009F044C0BCD86091BD037091BE038091C5
:10161000BF039091C00344D47F936F933F922F9266
:101620002B892F933A893F93B1D667E070E0CE01C2
:1016300007960E9434012D85FC01208368E070E04C
:10164000CE0107960E9434012E85FC01208369E0BB
:1016500070E0CE0107960E9434012F85FC012083A3
:101660006AE070E0CE0107960E9434012889FC01EF
:10167000208384EB92E0FAD9CE010796E4D90F904B
:101680000F900F900F900F900F907ACDF4E0CF163F
:10169000D10489F584E056D84C01B12CA12C4AE044
:1016A000C501B40181D980E292E072D9A50194010B
:1016B0002456310941095109A1E9B0E0E9D228E3F2
:1016C00033E040E050E0C8D2BA01A9014B5F5F4F60
:1016D0006F4F7F4F4333510548F081E090E0909386
:1016E000B0038093AF035F934F9398CF1092B003F2
:1016F0001092AF03F8CFF5E0CF16D10409F072CF06
:101700008091AF039091B003019709F470CE67E028
:1017100070E0CE0107960E943401FC01F08268E07F
:1017200070E0CE0107960E943401FC01F08269E06E
:1017300070E0CE0107960E943401FC01F0826AE05D
:1017400070E0CE0107960E943401FC01F08284EB28
:1017500092E08CD9CE01079676D912CD2CE0C21634
:10176000D10409F03EC00BD81093C2030093C1030B
:101770008090BD039090BE03A090BF03B090C003C3
:10178000B8016F5E7F4F072E000C880B990B51D16B
:10179000A501940148D187FF04C061E083E10E9464
:1017A000440361E170E0601B710B072E000C880B95
:1017B000990B3FD19B01AC01C501B40134D187FF26
:1017C00004C060E083E10E94440361E08C2D0E942C
:1017D00071030115110581F560E08C2D0E94440311
:1017E00055C03DE0C316D10429F41093B60300930D
:1017F000B503EBCF8EE0C816D10489F41093BA0379
:101800000093B90341E050E06CE370E0C8013ED8BA
:1018100081E090E09093BC038093BB03D6CF9FE020
:10182000C916D10491F61093B8030093B70342E0B0
:1018300050E06EE370E0EACF0F3F110511F461E074
:10184000CCCFF601FF27E254FE4FE491E150E231A4
:1018500008F0B1C0F0E08827E05DF34F8F4F63C31D
:10186000420C490C4E0C580C620CDB0C6C0C740CCA
:101870007C0C860C900C9A0CA90CB30CDB0CBD0CE8
:10188000C70CD10C84B5806884BD07BDC801EFD8F2
:101890005ECF84B5806284BD08BDF8CF80918000A2
:1018A0008068809380001093890000938800EECFB9
:1018B0008091800080628093800010938B00009361
:1018C0008A00E4CF8091800088608093800010932C
:1018D0008D0000938C00DACF8091B00080688093F7
:1018E000B0000093B300D2CF8091B00080628093AB
:1018F000B0000093B400CACF8091900080688093BC
:1019000090001093990000939800C0CF80919000B0
:1019100080628093900010939B0000939A00B6CF52
:101920008091900088608093900010939D000093B8
:101930009C00ACCF8091A00080688093A000809133
:10194000A0008F7B8093A0001093A9000093A800B3
:101950009DCF8091A00080628093A0001093AB0087
:101960000093AA0093CF8091A00088608093A0008C
:101970001093AD000093AC0089CF80912001806866
:101980008093200110932901009328017FCF80913B
:10199000200180628093200110932B0100932A0183
:1019A00075CF8091200188608093200110932D01D4
:1019B00000932C016BCF003811050CF040CF0CCFF9
:1019C00089E893E0EBCB0E948502A2CAECECF3E03D
:1019D0001382128288EE93E0A0E0B0E084839583C6
:1019E000A683B78382E192E09183808385EC90E0C7
:1019F0009587848784EC90E09787868780EC90E0D9
:101A0000918B808B81EC90E0938B828B82EC90E0C9
:101A1000958B848B86EC90E0978B868B118E128E43
:101A2000138E148E089540D008F481E00895E89450
:101A300009C097FB3EF490958095709561957F4F16
:101A40008F4F9F4F9923A9F0F92F96E9BB279395C4
:101A5000F695879577956795B795F111F8CFFAF4D4
:101A6000BB0F11F460FF1BC06F5F7F4F8F4F9F4F05
:101A700016C0882311F096E911C0772321F09EE863
:101A8000872F762F05C0662371F096E8862F70E0C9
:101A900060E02AF09A95660F771F881FDAF7880FA3
:101AA0009695879597F90895990F0008550FAA0BF9
:101AB000E0E8FEEF16161706E807F907C0F0121661
:101AC0001306E407F50798F0621B730B840B950B64
:101AD00039F40A2661F0232B242B252B21F40895B9
:101AE0000A2609F4A140A6958FEF811D811D089556
:101AF0000BD078C069D028F06ED018F0952309F08B
:101B00005AC05FC01124A2C07ED0A0F3959FD1F32C
:101B1000950F50E0551F629FF001729FBB27F00D9B
:101B2000B11D639FAA27F00DB11DAA1F649F6627F0
:101B3000B00DA11D661F829F2227B00DA11D621F3F
:101B4000739FB00DA11D621F839FA00D611D221FF9
:101B5000749F3327A00D611D231F849F600D211DDD
:101B6000822F762F6A2F11249F5750408AF0E1F080
:101B700088234AF0EE0FFF1FBB1F661F771F881FC9
:101B800091505040A9F79E3F510570F014C05EC0BF
:101B90005F3FECF3983EDCF3869577956795B795B4
:101BA000F795E7959F5FC1F7FE2B880F911D9695DE
:101BB000879597F9089597F99F6780E870E060E04E
:101BC00008959FEF80EC089500240A9416161706D6
:101BD00018060906089500240A941216130614061E
:101BE00005060895092E0394000C11F4882352F081
:101BF000BB0F40F4BF2B11F460FF04C06F5F7F4F39
:101C00008F4F9F4F089557FD9058440F551F59F01F
:101C10005F3F71F04795880F97FB991F61F09F3FD9
:101C200079F087950895121613061406551FF2CF02
:101C30004695F1DF08C0161617061806991FF1CF52
:101C400086957105610508940895E894BB27662779
:101C50007727CB0197F90895052E97FB16F400948A
:101C60000FD057FD05D01ED007FC02D046F408C0A7
:101C700050954095309521953F4F4F4F5F4F0895B8
:101C800090958095709561957F4F8F4F9F4F0895E8
:101C90002BD0A59F900DB49F900DA49F800D911DFA
:101CA00011240895A1E21A2EAA1BBB1BFD010DC031
:101CB000AA1FBB1FEE1FFF1FA217B307E407F507FC
:101CC00020F0A21BB30BE40BF50B661F771F881FD8
:101CD000991F1A9469F760957095809590959B016E
:101CE000AC01BD01CF010895A29FB001B39FC00117
:101CF000A39F700D811D1124911DB29F700D811D38
:101D00001124911D08955058BB27AA270ED06ACFE1
:101D10005BDF30F060DF20F031F49F3F11F41EF400
:101D200050CF0EF4E095E7FB46CFE92F6CDF80F350
:101D3000BA17620773078407950718F071F49EF5C8
:101D400084CF0EF4E0950B2EBA2FA02D0B01B90114
:101D500090010C01CA01A0011124FF27591B99F021
:101D6000593F50F4503E68F11A16F040A22F232F2D
:101D7000342F4427585FF3CF469537952795A7957D
:101D8000F0405395C9F77EF41F16BA0B620B730B24
:101D9000840BBAF09150A1F0FF0FBB1F661F771F95
:101DA000881FC2F70EC0BA0F621F731F841F48F44A
:101DB000879577956795B795F7959E3F08F0B3CFD0
:101DC0009395880F08F09927EE0F979587950895BA
:101DD0000CD008CF00DF40F0F7DE30F021F45F3F99
:101DE00019F0E9CE511132CFECCE0DDF98F39923E3
:101DF000C9F35523B1F3951B550BBB27AA276217CF
:101E00007307840738F09F5F5F4F220F331F441F13
:101E1000AA1FA9F333D00E2E3AF0E0E830D091504B
:101E20005040E695001CCAF729D0FE2F27D0660F38
:101E3000771F881FBB1F261737074807AB07B0E877
:101E400009F0BB0B802DBF01FF2793585F4F2AF08D
:101E50009E3F510568F0AFCEF9CE5F3FECF3983E60
:101E6000DCF3869577956795B795F7959F5FC9F7EA
:101E7000880F911D9695879597F90895E1E0660F73
:101E8000771F881FBB1F621773078407BA0720F0EC
:101E9000621B730B840BBA0BEE1F88F7E095089555
:101EA000BADE88F09F5790F0B92F9927B751A0F06C
:101EB000D1F0660F771F881F991F1AF0BA95C9F7DE
:101EC00012C0B13081F0C1DEB1E00895BECE672FFF
:101ED000782F8827B85F39F0B93FCCF3869577958E
:101EE0006795B395D9F73EF4909580957095619577
:101EF0007F4F8F4F9F4F0895D7DD08F48FEF0895E0
:101F000097FB072E16F4009406D077FD08D019D061
:101F100007FC05D03EF4909581959F4F08957095EC
:101F200061957F4F0895EE0FFF1F881F8BBF0790AD
:101F3000F691E02D1994D8DEB7FF0895821B930B1C
:101F40000895AA1BBB1B51E107C0AA1FBB1FA61700
:101F5000B70710F0A61BB70B881F991F5A95A9F752
:101F600080959095BC01CD0108950F931F93CF9359
:101F7000DF938230910510F482E090E0E0916B04F1
:101F8000F0916C0430E020E0B0E0A0E0309799F4EC
:101F90002115310509F44AC0281B390B24303105BD
:101FA000D8F58A819B816115710589F1FB019383C5
:101FB0008283FE0111C04081518102811381481743
:101FC0005907E0F04817590799F4109761F01296F5
:101FD0000C93129713961C933296CF01DF91CF91F9
:101FE0001F910F91089500936B0410936C04F4CF2C
:101FF0002115310551F04217530738F0A901DB01D3
:102000009A01BD01DF01F801C1CFEF01F9CF909333
:102010006C0480936B04CDCFFE01E20FF31F81931C
:1020200091932250310939832883D7CF20916904B5
:1020300030916A04232B41F4209102023091030273
:1020400030936A04209369042091000230910102C8
:102050002115310541F42DB73EB74091040250914E
:102060000502241B350BE0916904F0916A04E21724
:10207000F307A0F42E1B3F0B2817390778F0AC01AB
:102080004E5F5F4F2417350748F04E0F5F1F509388
:102090006A0440936904819391939FCFF0E0E0E05C
:1020A0009CCFCF93DF930097E9F0FC013297138226
:1020B0001282A0916B04B0916C04ED0130E020E03D
:1020C0001097A1F420813181820F931F2091690420
:1020D00030916A042817390709F061C0F0936A0447
:1020E000E0936904DF91CF910895EA01CE17DF07ED
:1020F000E8F54A815B819E0141155105B1F7E9017F
:10210000FB83EA8349915991C40FD51FEC17FD0752
:1021100061F4808191810296840F951FE901998372
:102120008883828193819B838A83F0E0E0E012962A
:102130008D919C9113970097B9F52D913C91119732
:10214000CD010296820F931F2091690430916A0499
:102150002817390739F6309751F510926C04109210
:102160006B04B0936A04A0936904BCCFD383C28389
:1021700040815181840F951FC817D90761F44E5FC4
:102180005F4F88819981480F591F518340838A810D
:102190009B81938382832115310509F0B0CFF093A1
:1021A0006C04E0936B049ECFFD01DC01C0CF138271
:1021B0001282D7CF4F925F926F927F928F929F92AF
:1021C000AF92BF92CF92DF92EF92FF920F931F9345
:1021D000CF93DF938C01009791F4CB01DF91CF91E6
:1021E0001F910F91FF90EF90DF90CF90BF90AF9035
:1021F0009F908F907F906F905F904F90B6CEFC0134
:10220000E60FF71F9C0122503109E217F30708F48B
:10221000AAC0D901CD91DC911197C617D70718F143
:10222000C530D10570F0CE0104978617970748F0A6
:10223000C61BD70B2297C193D1936D937C93CF018B
:1022400030DFC801DF91CF911F910F91FF90EF9088
:10225000DF90CF90BF90AF909F908F907F906F90C6
:102260005F904F9008955B01AC1ABD0A4C018C0E33
:102270009D1EA0916B04B0916C04512C412CF12C4B
:10228000E12C109731F58091690490916A048815CA
:10229000990509F05CC04616570608F058C08091B1
:1022A000000290910102009741F48DB79EB74091D2
:1022B000040250910502841B950BE817F90708F0FA
:1022C00052C0F0936A04E0936904F901718360835A
:1022D000B8CF8D919C91119712966C90129713968E
:1022E0007C901397A815B90559F56C0142E0C40E0E
:1022F000D11CCA14DB0420F1AC014A195B09DA01D4
:102300001296159780F06282738251834083D901BF
:102310006D937C93E114F10471F0D7011396FC9353
:10232000EE9312978ECF22968C0F9D1FF901918309
:102330008083F301EFCFF0936C04E0936B0481CFC3
:102340004816590608F42C017D01D3019ACFCB0120
:102350000CDE7C01009739F0AE01B80107D0C8014E
:10236000A0DE87016ECF10E000E06BCFFB01DC0147
:1023700002C001900D9241505040D8F70895FB01E2
:10238000DC0101900D920020E1F708950F931F9357
:10239000CF93DF93CDB7DEB72E970FB6F894DEBF9D
:1023A0000FBECDBF0E891F8986E08C831A830983F7
:1023B0008FEF9FE79E838D83AE01465E5F4F688DF2
:1023C000798DCE01019611D02F813885020F131F10
:1023D000F80110822E960FB6F894DEBF0FBECDBF67
:1023E000DF91CF911F910F9108952F923F924F92BD
:1023F0005F926F927F928F929F92AF92BF92CF9295
:10240000DF92EF92FF920F931F93CF93DF9300D051
:1024100000D000D01F921F92CDB7DEB77C013B01E8
:102420008A01FC0117821682838181FFD0C1CE010F
:1024300001965C01F7019381F30193FD859193FF70
:1024400081913F01882309F449C1853239F493FD14
:10245000859193FF81913F01853221F4B70190E08E
:10246000CFD1E8CF912C212C312CFFE1F31538F09E
:102470008B3211F190F4803209F1833229F137FC6B
:102480003CC020ED280F2A3050F536FE20C08AE0EF
:10249000989E200D1124922E06C08D3291F080332B
:1024A00071F7689430F8F30193FD859193FF819162
:1024B0003F018111DACF21C0689431F8689432F875
:1024C000F2CF689433F8EFCF689434F8ECCFEAE0B9
:1024D0002E9E200D1124222E689435F8E4CF8E32E2
:1024E00029F436FCFBC0689436F8DDCF8C3619F43D
:1024F000689437F8D8CF8836B1F2982F9F7D9554DD
:102500009330D8F0833691F18337B1F1833509F0F8
:102510005EC02801F2E04F0E511CF801C080D1804E
:10252000692D70E036FC02C06FEF7FEFC60152D11B
:102530004C01689437F882010AC00C5F1F4FFFE31B
:10254000F98388248394912C6501E89437F833FE4D
:102550002AC0522C8114910459F5552009F46ACFF0
:10256000B70180E290E04CD15A94F7CFF801808116
:1025700089830E5F1F4FE5CF2801F2E04F0E511CFB
:10258000F801C080D180692D70E036FC02C06FEF89
:102590007FEFC6012AD14C018201D7CFB70180E27B
:1025A00090E02ED12A942814190409F0B8F7D1CF5D
:1025B000F60137FC859137FE81916F01B70190E0FC
:1025C0001FD151105A94F1E08F1A9108C3CF84366D
:1025D00019F0893609F073C0F80137FE67C06081D1
:1025E0007181828193810C5F1F4FF32DFF763F2E07
:1025F00097FF09C090958095709561957F4F8F4F9B
:102600009F4F689437F82AE030E0A50129D1C82E01
:10261000CA188C2C432C36FE0CC0E89440F8C91420
:1026200040F434FE05C032FC03C0F32DFE7E4F2E75
:10263000892C44FEA6C0FE01EC0DF11D8081803383
:1026400009F098C0242D297E422E842D8870582EA2
:1026500043FCA5C040FE9FC09C2C821418F42C0C97
:10266000922C981844FEA1C0B70180E390E0C8D036
:1026700042FE08C088E790E041FE02C088E590E095
:10268000B701BED0C91408F49CC0CA94D12C9FEFE6
:10269000C91AD90ACA0CDB1CF60182916F01B70175
:1026A00090E0AED0AC14BD04B9F757CF6081718112
:1026B000072E000C880B990B0E5F1F4F96CFD32C63
:1026C000E894D4F82AE030E08537E1F1232D297F22
:1026D000D22E8F36A9F1F0F4883551F1F7018681B9
:1026E00097812B960FB6F894DEBF0FBECDBFDF915A
:1026F000CF911F910F91FF90EF90DF90CF90BF90FF
:10270000AF909F908F907F906F905F904F903F9091
:102710002F900895803749F0883701F7D4FE02C022
:102720006894D2F820E130E00DC06894D4F8F6CF78
:1027300034FE03C0822F8660D82E20E132E002C032
:1027400028E030E0F801D7FE0EC0608171818281FF
:1027500093810C5F1F4FA50183D0C82ECA183D2C52
:10276000E89437F856CF6081718190E080E00E5F89
:102770001F4FF1CF42FC02C0839467CF83948394B0
:1027800064CF842D867809F460CFF6CFB70180E25C
:1027900090E036D083948214C8F3512C63CF522C2E
:1027A0005818821408F45ECFF8CF842D867809F487
:1027B00069CF8BE241FE80E247FC8DE2B70190E0F9
:1027C00060CFB70180E390E01BD09A945BCF8FEF8E
:1027D0009FEF87CFFC010590615070400110D8F742
:1027E000809590958E0F9F1F0895FC016150704059
:1027F00001900110D8F7809590958E0F9F1F089536
:102800000F931F93CF93DF93182F092FEB018B8129
:1028100081FD09C01FEF0FEF812F902FDF91CF9126
:102820001F910F91089582FF14C02E813F818C81EA
:102830009D81281739073CF4E881F981CF01019681
:102840009983888310838E819F8101969F838E83D5
:10285000E3CFE885F985812F1995892BA1F3DACF8C
:10286000FA01AA27283051F1203181F1E8946F93C1
:102870006E7F6E5F7F4F8F4F9F4FAF4FB1E03ED067
:10288000B4E03CD0670F781F891F9A1FA11D680F05
:10289000791F8A1F911DA11D6A0F711D811D911D38
:1028A000A11D20D009F468943F912AE0269F1124AD
:1028B0003019305D3193DEF6CF010895462F477011
:1028C000405D4193B3E00FD0C9F7F6CF462F4F706C
:1028D000405D4A3318F0495D31FD4052419302D0CA
:1028E000A9F7EACFB4E0A695979587957795679570
:1028F000BA95C9F700976105710508959B01AC0170
:102900000A2E06945795479537952795BA95C9F796
:10291000620F731F841F951FA01D0895F894FFCFA9
:1029200000006D0480001400160015001700000060
:1029300000001A02460173016602E3018201D5011B
:102940000D0A0053697374656D6120496E63696196
:10295000646F2E2E2E004361726163746572206471
:102960006520696E6963696F20656E636F6E74724E
:1029700061646F2E2E2E00456E64657265C3A76F6D
:10298000206465206573637261766F20636F727275
:1029900065746F2E2E2E004D656E736167656D2018
:1029A00070617261206F7574726F206573637261FC
:1029B000766F2C20416C656C7569612121212E2E6A
:1029C0002E004C656974757261206E6120536169D7
:1029D00064612000526573706F73746120646F20AE
:1029E0004573637261766F3A20004C656974757245
:1029F00061206E6120456E747261646120004573D0
:102A00006372697461206E612053616964612000A2
:102A1000202D3E204D756461722070617261204CE2
:102A2000696761646F00204D756461722070617226
:102A300061204465736C696761646F004C656974FB
:102A4000757261206E6120456E747261646120410F
:102A50006E616C6F676963612000253034640045E6
:102A6000736372697461206E6120536169646120CF
:102A7000416E616C6F67696361200056616C6F72B3
:102A80003A2000746573746520656E74726F7520EA
:102A90006D61696F7200746573746520656E747220
:102AA0006F75206D656E6F7200466F726D61746F29
:102AB000206465206D656E736167656D2064657364
:0E2AC000636F6E68656369646F2E2E2E0000D2
:020000023000CC
:10E000000D9489F10D94B2F10D94B2F10D94B2F129
:10E010000D94B2F10D94B2F10D94B2F10D94B2F1F0
:10E020000D94B2F10D94B2F10D94B2F10D94B2F1E0
:10E030000D94B2F10D94B2F10D94B2F10D94B2F1D0
:10E040000D94B2F10D94B2F10D94B2F10D94B2F1C0
:10E050000D94B2F10D94B2F10D94B2F10D94B2F1B0
:10E060000D94B2F10D94B2F10D94B2F10D94B2F1A0
:10E070000D94B2F10D94B2F10D94B2F10D94B2F190
:10E080000D94B2F10D94B2F10D94B2F10D94B2F180
:10E090000D94B2F10D94B2F10D94B2F10D94B2F170
:10E0A0000D94B2F10D94B2F10D94B2F10D94B2F160
:10E0B0000D94B2F10D94B2F10D94B2F10D94B2F150
:10E0C0000D94B2F10D94B2F10D94B2F10D94B2F140
:10E0D0000D94B2F10D94B2F10D94B2F10D94B2F130
:10E0E0000D94B2F141546D656761323536300041AF
:10E0F000726475696E6F206578706C6F72657220DE
:10E1000073746B3530305632206279204D4C530099
:10E11000426F6F746C6F616465723E004875683F52
:10E1200000436F6D70696C6564206F6E203D200048
:10E130004350552054797065202020203D20005FF9
:10E140005F4156525F415243485F5F3D2000415658
:10E1500052204C696243205665723D20004743437C
:10E160002056657273696F6E203D20004350552024
:10E1700049442020202020203D20004C6F7720663D
:10E18000757365202020203D20004869676820665F
:10E190007573652020203D200045787420667573D6
:10E1A00065202020203D20004C6F636B2066757336
:10E1B000652020203D20004D617220203720323024
:10E1C000313300312E362E3800342E332E350056A2
:10E1D00023202020414444522020206F7020636F70
:10E1E00064652020202020696E73747275637469E1
:10E1F0006F6E2061646472202020496E74657272B3
:10E20000757074006E6F20766563746F7200726A49
:10E210006D702020006A6D70200057686174207056
:10E220006F72743A00506F7274206E6F7420737541
:10E2300070706F72746564004D7573742062652030
:10E2400061206C6574746572002000577269747483
:10E25000696E672045450052656164696E672045B7
:10E26000450045452065727220636E743D00504F35
:10E27000525400303D5A65726F2061646472003FF1
:10E280003D43505520737461747300403D454550C3
:10E29000524F4D207465737400423D426C696E6B41
:10E2A000204C454400453D44756D70204545505215
:10E2B0004F4D00463D44756D7020464C415348001B
:10E2C000483D48656C70004C3D4C69737420492F83
:10E2D0004F20506F72747300513D51756974005234
:10E2E0003D44756D702052414D00563D73686F7707
:10E2F00020696E7465727275707420566563746FF0
:10E30000727300593D506F727420626C696E6B00BD
:10E310002A0011241FBECFEFD1E2DEBFCDBF01E046
:10E320000CBF12E0A0E0B2E0EEE1FDEF03E00BBFB6
:10E3300002C007900D92A030B107D9F712E0A0E01B
:10E34000B2E001C01D92AE30B107E1F70F9460F367
:10E350000D948DFE01E20EBF0FEF0DBF11241FBE05
:10E360000D9460F30D9400F020E030E040ED57E0B4
:10E3700005C0FA013197F1F72F5F3F4F2817390792
:10E38000C0F308959C01260F311DC901A0E0B0E043
:10E390002F5F3F4FABBFFC018791882361F08093D3
:10E3A000C6008091C00086FFFCCF8091C0008064D1
:10E3B0008093C000EACF08958DE08093C6008091DD
:10E3C000C00086FFFCCF8091C00080648093C000B5
:10E3D0008AE08093C6008091C00086FFFCCF8091C8
:10E3E000C00080648093C00008950F94C2F10F9420
:10E3F000DCF10895FC019081992359F09093C600B7
:10E400008091C00086FFFCCF8091C0008064809323
:10E41000C0003196992379F70895282F982F929567
:10E420009F70892F805D8A3308F0895F8093C600D2
:10E430008091C00086FFFCCF8091C00080648093F3
:10E44000C000822F8F70982F905D9A3308F0995FEB
:10E450009093C6008091C00086FFFCCF8091C000E1
:10E4600080648093C00008959C01FB01853691056E
:10E470001CF46330710594F0C90164E670E00F94F8
:10E480002EFE605D7F4F6093C6008091C00086FFC6
:10E49000FCCF8091C00080648093C0002B30310598
:10E4A00014F43297B4F0C90164E670E00F942EFEC4
:10E4B0006AE070E00F942EFE605D7F4F6093C600AF
:10E4C0008091C00086FFFCCF8091C0008064809363
:10E4D000C000C9016AE070E00F942EFEC0968093E0
:10E4E000C6008091C00086FFFCCF8091C000806490
:10E4F0008093C00008951F93182F8EE692EE60E07F
:10E500000F94C2F11093C6008091C00086FFFCCF2B
:10E510008091C00080648093C0000F94DCF11F9153
:10E5200008952F923F924F925F926F927F928F92B7
:10E530009F92AF92BF92CF92DF92EF92FF920F9392
:10E540001F93DF93CF93CDB7DEB762970FB6F894E2
:10E55000DEBF0FBECDBF382E622ECA01DB015C01CB
:10E560006D01772420E2222E2E010894411C511CBB
:10E570008BC081E0A81680E0B80681E0C80680E084
:10E58000D80628F0C601AA27BB270F940DF2BB2797
:10E59000AD2D9C2D8B2D0F940DF28A2D0F940DF225
:10E5A0002092C6008091C00086FFFCCF8091C00001
:10E5B00080648093C0009DE29093C6008091C0006B
:10E5C00086FFFCCF8091C00080648093C0002092C1
:10E5D000C6008091C00086FFFCCF8091C00080649F
:10E5E0008093C00019828601750188249924A1E0D6
:10E5F0003A1651F03A1620F0B2E03B1661F409C029
:10E600000BBFF701779007C0C7010F9477FE782EF4
:10E6100002C0F7017080872D0F940DF22092C60082
:10E620008091C00086FFFCCF8091C0008064809301
:10E63000C000872D8052F401EF70F0708F3520F408
:10E64000E40DF51D708204C0E40DF51D8EE280839B
:10E650000894E11CF11C011D111D0894811C911CE2
:10E6600090E18916910409F0C2CF80E190E0A0E02A
:10E67000B0E0A80EB91ECA1EDB1E198AC2010F9493
:10E68000FAF10F94DCF16A94662009F072CF629679
:10E690000FB6F894DEBF0FBECDBFCF91DF911F91B3
:10E6A0000F91FF90EF90DF90CF90BF90AF909F9031
:10E6B0008F907F906F905F904F903F902F90089534
:10E6C0002F923F924F925F926F927F928F929F9282
:10E6D000AF92BF92CF92DF92EF92FF920F931F9370
:10E6E000DF93CF93CDB7DEB7CD53D1400FB6F894BB
:10E6F000DEBF0FBECDBF01E20EBF0FEF0DBF94B75F
:10E70000F894A89514BE80916000886180936000A1
:10E7100010926000789493FF05C0E0910002F091A0
:10E7200001021995279A2F9A8091C00082608093E8
:10E73000C00080E18093C40088E18093C1000000A4
:10E74000EE24FF24870144E0A42EB12CCC24DD2448
:10E7500024C0C5010197F1F70894E11CF11C011DCB
:10E76000111D21E2E2162EE4F20620E0020720E06D
:10E77000120718F031E0C32ED12CC801B70127ECE5
:10E780003BE140E050E00F9441FE611571058105C9
:10E79000910519F485B1805885B98091C00087FD35
:10E7A00003C0C114D104A9F2A6014F5F5F4FC25E3E
:10E7B000DE4F59834883CE51D140C25EDE4F8881FF
:10E7C0009981CE51D140019711F00D9410FEC05D9A
:10E7D000DE4F19821882C053D14060E0C15DDE4F28
:10E7E0001882CF52D14088249924C35DDE4F19820C
:10E7F0001882CD52D140C05EDE4F188219821A8233
:10E800001B82C052D140CE5CDE4F188219821A8220
:10E810001B82C253D140EE24FF2487010BBFF701B6
:10E8200007911691C45CDE4F19830883CC53D14005
:10E830000D940BFEC25EDE4F28813981CE51D1404E
:10E840002130310509F52091C600C25EDE4F1982E4
:10E850001882CE51D14022C02F5F3F4F4F4F5F4FA4
:10E86000213082E138078AE7480780E0580780F0C6
:10E87000C45CDE4FE881F981CC53D140EF5FFF4F9C
:10E8800019F0EE27FF27099420E030E040E050E047
:10E890008091C00087FFE0CF2091C600C35DDE4FAE
:10E8A00048815981CD52D1404F5F5F4FC35DDE4FEC
:10E8B00059834883CD52D140213209F063C64A3092
:10E8C000510508F05FC60894811C911C53E0851621
:10E8D000910409F059C600E010E018C081E280936D
:10E8E000C6008091C00086FFFCCF8091C00080648C
:10E8F0008093C0002F5F3F4F2931310579F70F9486
:10E90000DCF10F5F1F4F0530110519F020E030E0FA
:10E91000E5CF10920A0210920B0210920C02109294
:10E920000D02109206021092070210920802109235
:10E930000902109202021092030210920402109235
:10E9400005028FEE90EE60E00F94F5F180E191EE1C
:10E9500060E00F94C2F18091C00087FFFCCF9091DE
:10E96000C600903608F09F759032B8F09093C600BC
:10E970008091C00086FFFCCF8091C00080648093AE
:10E98000C000A0E2A093C6008091C00086FFFCCF2B
:10E990008091C00080648093C000983409F4D7C18E
:10E9A0009934B8F4923409F459C1933458F490333B
:10E9B00019F1903308F4E3C59F33A1F1903409F0C5
:10E9C000DEC5BDC0953409F470C1963409F0D7C5D1
:10E9D00098C1923509F42BC2933538F49C3409F46C
:10E9E000F5C1913509F0CBC518C2963509F445C279
:10E9F000993509F0C4C567C483E792EE62E00F94CD
:10EA0000F5F110920602109207021092080210927D
:10EA1000090210920A0210920B0210920C0210923C
:10EA20000D0213C18FE792EE62E00F94F5F18FEEC5
:10EA300090EE60E00F94F5F181E291EE60E00F94CA
:10EA4000C2F187EB91EE60E00F94F5F180E391EE77
:10EA500060E00F94C2F184EE90EE60E00F94F5F167
:10EA60008FE391EE60E00F94C2F186E090E061E008
:10EA700070E00F9434F20F94DCF18DE591EE60E0DC
:10EA80000F94C2F189EC91EE60E00F94F5F18EE401
:10EA900091EE60E00F94C2F183EC91EE60E00F9490
:10EAA000F5F18CE691EE60E00F94C2F18EE10F94E7
:10EAB0000DF288E90F940DF281E00F940DF20F949E
:10EAC000DCF18BE791EE60E00F94C2F119E0E0E039
:10EAD000F0E010935700E4918E2F0F940DF20F94F5
:10EAE000DCF18AE891EE60E00F94C2F1E3E0F0E03F
:10EAF00010935700E4918E2F0F940DF20F94DCF1D8
:10EB000089E991EE60E00F94C2F1E2E0F0E0109349
:10EB10005700E4918E2F0F940DF20F94DCF188EAE8
:10EB200091EE60E00F94C2F1E1E0F0E01093570045
:10EB30001491812F0F940DF20F94DCF107CF8BE825
:10EB400092EE62E00F94F5F18BE492EE60E00F94A8
:10EB5000F5F10F94DCF100E010E019C0C8016F2D51
:10EB60000F947FFEFF2031F489E492EE60E00F9471
:10EB7000C2F10BC0F092C6008091C00086FFFCCFAE
:10EB80008091C00080648093C0000F5F1F4FC80158
:10EB900081519F41A0E0B0E0ABBFFC01F790BAE229
:10EBA000FB1621F0E2E000301E07C1F60F94DCF105
:10EBB0000F94DCF187E592EE60E00F94F5F10F948D
:10EBC000DCF1CC24DD2400E010E01EC0C8010F946D
:10EBD00077FEF82E882331F489E492EE60E00F94FA
:10EBE000C2F10BC08093C6008091C00086FFFCCFAD
:10EBF0008091C00080648093C000FE1419F00894D6
:10EC0000C11CD11C0F5F1F4FC80181519F41A0E063
:10EC1000B0E0ABBFFC01E790FAE2EF1621F022E092
:10EC20000030120799F60F94DCF10F94DCF182E6C4
:10EC300092EE60E00F94C2F1C60161E070E00F94C3
:10EC400034F20F94DCF10F94DCF110920202109276
:10EC50000302109204021092050278CE89E992EE26
:10EC600062E00F94F5F1279A2F9A16C02F9880E052
:10EC700090E0E0EDF7E03197F1F7019684369105E9
:10EC8000C1F72F9A80E090E0E0EDF7E03197F1F7DF
:10EC9000019684369105C1F78091C00087FFE6CFC9
:10ECA0008091C00087FFFCCF64C485EA92EE62E0E9
:10ECB0000F94F5F140910202509103026091040219
:10ECC0007091050281E020E10F9491F2809102029F
:10ECD00090910302A0910402B091050280509F4FD1
:10ECE000AF4FBF4F8093020290930302A0930402A0
:10ECF000B093050280509041A040B04008F426CE69
:10ED0000A4CF83EB92EE62E00F94F5F140910602FE
:10ED100050910702609108027091090280E020E1A1
:10ED20000F9491F28091060290910702A09108023F
:10ED3000B091090280509F4FAF4FBF4F80930602A2
:10ED400090930702A0930802B0930902FFCD80ECD4
:10ED500092EE62E00F94F5F183E792EE60E00F949B
:10ED6000F5F18FE792EE60E00F94F5F18BE892EE0B
:10ED700060E00F94F5F189E992EE60E00F94F5F10F
:10ED800085EA92EE60E00F94F5F183EB92EE60E09D
:10ED90000F94F5F180EC92EE60E00F94F5F187ECC2
:10EDA00092EE60E00F94F5F188ED92EE60E00F9442
:10EDB000F5F18FED92EE60E00F94F5F18AEE92EEB0
:10EDC00060E00F94F5F183E093EEBDCD87EC92EE19
:10EDD00062E00F94F5F181E40F947BF282E40F94EA
:10EDE0007BF283E40F947BF284E40F947BF285E45E
:10EDF0000F947BF286E40F947BF287E40F947BF20E
:10EE000088E40F947BF28AE40F947BF28BE40F94F6
:10EE10007BF28CE40F947BF299CD88ED92EE62E068
:10EE20000F94F5F1772473948824992409C48FED05
:10EE300092EE62E00F94F5F140910A0250910B02BC
:10EE400060910C0270910D0282E020E10F9491F22A
:10EE500080910A0290910B02A0910C02B0910D02D8
:10EE600080509F4FAF4FBF4F80930A0290930B0289
:10EE7000A0930C02B0930D0269CD8AEE92EE62E08F
:10EE80000F94F5F184EE90EE60E00F94F5F18FECC5
:10EE900091EE60E00F94F5F1662477244301CC5D98
:10EEA000DE4F19821882C452D140D401C301B695F5
:10EEB000A79597958795CA5DDE4F88839983AA8326
:10EEC000BB83C652D140CC5DDE4FA881B981C4520C
:10EED000D1401196CC5DDE4FB983A883C452D14096
:10EEE000CD0162E070E00F9434F2B0E2B093C6005E
:10EEF0008091C00086FFFCCF8091C0008064809329
:10EF0000C000EDE2E093C6008091C00086FFFCCF18
:10EF10008091C00080648093C000F0E2F093C6004E
:10EF20008091C00086FFFCCF8091C00080648093F8
:10EF3000C000CA5DDE4FE880F9800A811B81C6529D
:10EF4000D140BB27A12F902F8F2D0F940DF2CA5DBA
:10EF5000DE4F8881C652D1400F940DF2B0E2FB2EF5
:10EF6000F092C6008091C00086FFFCCF8091C00067
:10EF700080648093C0000DE30093C6008091C000C0
:10EF800086FFFCCF8091C00080648093C00010E2B7
:10EF90001093C6008091C00086FFFCCF8091C00016
:10EFA00080648093C0008BBEF3012791C65DDE4F65
:10EFB0002883CA52D140A22EBB24CC24DD2408943D
:10EFC000611C711C811C911C8BBEF3018791282E42
:10EFD0003324442455240894611C711C811C911C09
:10EFE0008BBEF3013791C55DDE4F3883CB52D140E4
:10EFF0000894611C711C811C911C8BBEF30147910C
:10F00000C45DDE4F4883CC52D140ADEFEA2EAFEF66
:10F01000FA2EAFEF0A2FAFEF1A2F6E0C7F1C801E57
:10F02000911E142D032DF22CEE24EA0CFB1C0C1D5A
:10F030001D1D0F940DF220E22093C6008091C000A8
:10F0400086FFFCCF8091C00080648093C000C65DC5
:10F05000DE4F8881CA52D1400F940DF230E23093D6
:10F06000C6008091C00086FFFCCF8091C000806404
:10F070008093C000C45DDE4F8881CC52D1400F9494
:10F080000DF240E24093C6008091C00086FFFCCFA5
:10F090008091C00080648093C000C55DDE4F888190
:10F0A000CB52D1400F940DF250E25093C6008091A4
:10F0B000C00086FFFCCF8091C00080648093C000B8
:10F0C0008FEFE8168FEFF80680E0080780E018075A
:10F0D00031F484E092EE60E00F94C2F1DFC0D80119
:10F0E000C7018070907CA070B0708050904CA040A0
:10F0F000B040D1F52FEF3FE340E050E0E222F322B1
:10F1000004231523CA5DDE4FA880B980CA80DB8046
:10F11000C652D140AE0CBF1CC01ED11EAA0CBB1CD7
:10F12000CC1CDD1C8EE092EE60E00F94C2F1BB2798
:10F13000A12F902F8F2D0F940DF28E2D0F940DF285
:10F1400030E23093C6008091C00086FFFCCF8091F2
:10F15000C00080648093C0004EE34093C60080915D
:10F16000C00086FFFCCF87C08EE09EEFA0E0B0E03D
:10F17000E822F9220A231B239CE0E91694E9F90608
:10F1800090E0090790E0190709F088C0C45DDE4FE0
:10F19000A881CC52D140EA2EFF2400E010E0102FCD
:10F1A0000F2DFE2CEE24C55DDE4FB881CB52D14031
:10F1B000EB0EF11C011D111DD601C501817090706F
:10F1C000A070B070DC0199278827E80EF91E0A1F8D
:10F1D0001B1F20EF30E040E050E0A222B322C42207
:10F1E000D52241E1AA0CBB1CCC1CDD1C4A95D1F7F1
:10F1F000EA0CFB1C0C1D1D1D81E090E0A0E0B0E0BE
:10F20000282239224A225B2235E1220C331C441C7D
:10F21000551C3A95D1F7E20CF31C041D151D57013E
:10F220006801AA0CBB1CCC1CDD1C85E192EE60E0E1
:10F230000F94C2F1C801AA27BB270F940DF2BB2778
:10F24000A12F902F8F2D0F940DF28E2D0F940DF274
:10F2500090E29093C6008091C00086FFFCCF809121
:10F26000C00080648093C000AEE3A093C60080918C
:10F27000C00086FFFCCF8091C00080648093C000F6
:10F28000C601AA27BB270F940DF2BB27AD2D9C2DDD
:10F290008B2D0F940DF28A2D0F940DF20F94DCF14B
:10F2A000CC5DDE4FE881F981C452D140F99709F471
:10F2B0004DCBF4E0EF2EF12C012D112D6E0C7F1CA7
:10F2C000801E911EF2CD83E093EE62E00F94F5F183
:10F2D0008AE192EE60E00F94C2F18091C00087FF56
:10F2E000FCCF1091C6001F751093C6008091C0001E
:10F2F00086FFFCCF8091C00080648093C0000F9493
:10F30000DCF1812F81548A3108F036C1163409F4BA
:10F3100095C0173490F4133409F44EC0143430F40B
:10F320001134F1F0123409F01DC130C0143409F465
:10F3300059C0153409F016C16BC01A3409F4C4C0A1
:10F340001B3438F4173409F48FC0183409F00AC19B
:10F35000A1C01B3409F4D2C01C3409F003C1E8C0B9
:10F360008FEF81B90DC082B1809582B980E090E0C5
:10F37000E0EDF7E03197F1F70196883C9105C1F790
:10F380008091C00087FFEFCF12B8EFC08FEF84B934
:10F390000DC085B1809585B980E090E0E0EDF7E0A3
:10F3A0003197F1F70196883C9105C1F78091C00033
:10F3B00087FFEFCF15B8D9C08FEF87B90DC088B1DF
:10F3C000809588B980E090E0E0EDF7E03197F1F7C3
:10F3D0000196883C9105C1F78091C00087FFEFCF6F
:10F3E00018B8C3C08FEF8AB90DC08BB180958BB9A7
:10F3F00080E090E0E0EDF7E03197F1F70196883C8E
:10F400009105C1F78091C00087FFEFCF1BB8ADC059
:10F410008FEF8DB90DC08EB180958EB980E090E0F0
:10F42000E0EDF7E03197F1F70196883C9105C1F7DF
:10F430008091C00087FFEFCF1EB897C08FEF80BBD1
:10F440000DC081B3809581BB80E090E0E0EDF7E0F6
:10F450003197F1F70196883C9105C1F78091C00082
:10F4600087FFEFCF11BA81C08FEF83BB0DC084B38C
:10F47000809584BB80E090E0E0EDF7E03197F1F714
:10F480000196883C9105C1F78091C00087FFEFCFBE
:10F4900014BA6BC08FEF809301010FC080910201FD
:10F4A00080958093020180E090E0E0EDF7E03197F5
:10F4B000F1F70196883C9105C1F78091C00087FF64
:10F4C000EDCF1092020151C08FEF809304010FC065
:10F4D0008091050180958093050180E090E0E0ED4A
:10F4E000F7E03197F1F70196883C9105C1F78091DB
:10F4F000C00087FFEDCF1092050137C08FEF8093DA
:10F5000007010FC08091080180958093080180E079
:10F5100090E0E0EDF7E03197F1F70196883C910536
:10F52000C1F78091C00087FFEDCF109208011DC088
:10F530008FEF80930A010FC080910B01809580931B
:10F540000B0180E090E0E0EDF7E03197F1F70196F4
:10F55000883C9105C1F78091C00087FFEDCF1092E4
:10F560000B0103C085E292EEEEC98091C00087FFD7
:10F57000FCCF8091C600EAC988E392EEE4C98CE131
:10F5800091EEE1C988249924933011F1943028F444
:10F59000913089F09230B8F408C0953061F195301F
:10F5A000F0F0963009F048C043C02B3109F042C951
:10F5B00091E06BE13FC96227C15DDE4F2883CF52E6
:10F5C000D14092E037C9B22FA0E0622793E032C960
:10F5D000822F90E0A82BB92B622794E02BC92E3004
:10F5E00009F039C3622795E0C05DDE4F19821882A9
:10F5F000C053D1401FC9E1E0F0E0EC0FFD1FC05D3A
:10F60000DE4F08811981C053D140E00FF11F2083E4
:10F610000F5F1F4FC05DDE4F19830883C053D14079
:10F6200062270A171B0709F005C9D80196E002C92D
:10F63000261709F010C303C0973009F0FBC87724E0
:10F640009981933109F412C19431C8F4963009F4C8
:10F65000D8C0973050F4923009F406C1933009F4C1
:10F660006DC0913009F059C253C0913109F477C08F
:10F67000923108F0BBC0903109F04FC2F5C098310B
:10F6800009F487C0993150F4953109F4EFC09531F0
:10F6900008F4C6C1963109F040C2C2C19A3109F4DA
:10F6A0006CC09A3108F491C09B3109F45BC09D3164
:10F6B00009F033C29D81903359F48F81882311F46E
:10F6C0009EE11CC0813011F091E018C098E916C08D
:10F6D000892F807591F0903539F4E0E0F0E089E011
:10F6E0008093570094910AC0983539F4E3E0F0E034
:10F6F00089E080935700949101C090E01A821B82A8
:10F700008D818C831D829E831F8227E030E009C299
:10F710001A8288E08B8381E48C8386E58D8382E581
:10F720008E8389E48F8383E5888780E589878FE5E9
:10F730008A8782E38B872BE030E0F3C18A818139AD
:10F7400041F0823941F0803911F48FE005C080E04A
:10F7500003C082E001C08AE01A828B8344C0772410
:10F76000739482C08D81882311F48EE12CC0813086
:10F7700011F081E028C088E926C01A82E1E0F0E0BB
:10F7800089E08093570084918B831C8224E030E0D1
:10F79000C8C18B81803589F48C81883039F4E2E0EE
:10F7A000F0E089E08093570084910DC0E0E0F0E044
:10F7B00089E080935700849106C0E3E0F0E089E09F
:10F7C0008093570084911A82DFCF8D81836C99E0FA
:10F7D000E1E0F0E0082E90935700E89507B600FCB2
:10F7E000FDCF1A821B8223E030E09BC180EC8A832C
:10F7F000CE5CDE4F188219821A821B82C253D1401E
:10F800008EC18A8190E0A0E0B0E0582F44273327D2
:10F8100022278B8190E0A0E0B0E0DC0199278827C7
:10F82000282B392B4A2B5B2B8D8190E0A0E0B0E098
:10F83000282B392B4A2B5B2B8C8190E0A0E0B0E089
:10F84000BA2FA92F982F8827282B392B4A2B5B2BCF
:10F85000220F331F441F551FC05EDE4F288339839C
:10F860004A835B83C052D1401A8259C13A81C95C34
:10F87000DE4F3883C753D140CA5CDE4F1882C6536F
:10F88000D1408B81C82EDD24CA5CDE4F488159816E
:10F89000C653D140C42AD52A933109F082C0CE5C28
:10F8A000DE4F88819981AA81BB81C253D1408050AB
:10F8B000904CA340B04030F583E0CE5CDE4FE88052
:10F8C000F9800A811B81C253D140F70100935B008C
:10F8D00080935700E89507B600FCFDCFCE5CDE4F65
:10F8E000088119812A813B81C253D14000501F4FAA
:10F8F0002F4F3F4FCE5CDE4F088319832A833B8313
:10F90000C253D140C05EDE4F488159816A817B81FC
:10F91000C052D140DE011B9631E08C9111962C91A2
:10F9200011971296C75CDE4F2883C953D140C85C3B
:10F93000DE4F1882C853D14090E0C85CDE4FE881AA
:10F94000F981C853D1408E2B9F2B0C01FA01609393
:10F950005B0030935700E89511244E5F5F4F6F4F67
:10F960007F4F0EEFE02E0FEFF02ECE0CDF1CC114F8
:10F97000D10499F685E0C05EDE4F088119812A81A5
:10F980003B81C052D140F80120935B008093570027
:10F99000E89507B600FCFDCF81E180935700E8951C
:10F9A00035C0C05EDE4F88819981AA81BB81C0527B
:10F9B000D140B695A795979587957C018601ABE0D8
:10F9C000AA2EB12CAC0EBD1E0BC0D5016D915D01F0
:10F9D000C7010F947FFE0894E11CF11C01501040F8
:10F9E0000115110591F7A60160E070E0440F551F65
:10F9F000661F771FC05EDE4FE880F9800A811B8199
:10FA0000C052D1404E0D5F1D601F711F1A82C05E33
:10FA1000DE4F488359836A837B83C052D1407FC0C5
:10FA2000FA80C55CDE4FF882CB53D140C65CDE4F16
:10FA30001882CA53D1408B81C82EDD24C65CDE4FAC
:10FA400008811981CA53D140C02AD12A1A828981DA
:10FA5000BE016D5F7F4F843121F59601C05EDE4FA0
:10FA6000E880F9800A811B81C052D1400BBFF701A9
:10FA700087919691DB018C9311969C936E5F7F4FDB
:10FA8000D801C7010296A11DB11DC05EDE4F88835B
:10FA90009983AA83BB83C052D14022503040F1F6F3
:10FAA00036C0C05EDE4F288139814A815B81C052F9
:10FAB000D1400894C108D108760100E010E0089414
:10FAC000C11CD11C0894E11CF11C011D111DE20E8A
:10FAD000F31E041F151F21BDBB27A52F942F832FB5
:10FAE00082BD2F5F3F4F4F4F5F4FF89A80B5DB01CC
:10FAF0008D93BD012E153F054007510761F7C05E8C
:10FB0000DE4F288339834A835B83C052D1409601FC
:10FB10002D5F3F4FFB01108204C080EC8A8322E0FE
:10FB200030E08BE18093C6008091C00086FFFCCF5F
:10FB30008091C00080648093C000C15DDE4FF88179
:10FB4000CF52D140F093C6008091C00086FFFCCF19
:10FB50008091C00080648093C000432F3093C60022
:10FB60008091C00086FFFCCF8091C00080648093AC
:10FB7000C000922F2093C6008091C00086FFFCCF6A
:10FB80008091C00080648093C0008EE08093C600A6
:10FB90008091C00086FFFCCF8091C000806480937C
:10FBA000C00065E1C15DDE4FE880CF52D1406E25D7
:10FBB00069276427FE01319610C090819093C6009A
:10FBC0008091C00086FFFCCF31968091C000806498
:10FBD0008093C0006927215030402115310569F715
:10FBE0006093C6008091C00086FFFCCF8091C0006A
:10FBF00080648093C00085B1805885B9772081F4F6
:10FC0000C15DDE4F0881CF52D1400F5FC15DDE4F35
:10FC10000883CF52D14090E0A0E0B0E00D941AF4F8
:10FC200027982F9880E090E020ED37E0F901319798
:10FC3000F1F7019684369105C9F700008091C00064
:10FC40008D7F8093C00081E180935700E895EE2777
:10FC5000FF270994FFCF90E00D941AF497FB092E2B
:10FC600007260AD077FD04D02ED006D000201AF443
:10FC7000709561957F4F0895F6F7909581959F4F08
:10FC80000895A1E21A2EAA1BBB1BFD010DC0AA1FDD
:10FC9000BB1FEE1FFF1FA217B307E407F50720F0F5
:10FCA000A21BB30BE40BF50B661F771F881F991F70
:10FCB0001A9469F760957095809590959B01AC01B9
:10FCC000BD01CF010895AA1BBB1B51E107C0AA1FAC
:10FCD000BB1FA617B70710F0A61BB70B881F991FED
:10FCE0005A95A9F780959095BC01CD010895F99991
:10FCF000FECF92BD81BDF89A992780B50895262F31
:10FD0000F999FECF1FBA92BD81BD20BD0FB6F89400
:0EFD1000FA9AF99A0FBE01960895F894FFCF63
:040000033000E000E9
:00000001FF
